:0200000460009A
:10000000464346420004015600000000010303007D
:1000100000000000000000000000000000000000E0
:1000200000000000000000000000000000000000D0
:1000300000000000000000000000000000000000C0
:1000400000000000000406000000000000000000A6
:100050000000800000000000000000000000000020
:100060000000000000000000000000000000000090
:100070000000000000000000000000000000000080
:10008000EB04180A063204260000000000000000FD
:100090000000000000000000000000000000000060
:1000A0000000000000000000000000000000000050
:1000B0000000000000000000000000000000000040
:1000C0000000000000000000000000000000000030
:1000D0000000000000000000000000000000000020
:1000E0000000000000000000000000000000000010
:1000F0000000000000000000000000000000000000
:1001000000000000000000000000000000000000EF
:1001100000000000000000000000000000000000DF
:1001200000000000000000000000000000000000CF
:1001300000000000000000000000000000000000BF
:1001400000000000000000000000000000000000AF
:10015000000000000000000000000000000000009F
:10016000000000000000000000000000000000008F
:10017000000000000000000000000000000000007F
:10018000000000000000000000000000000000006F
:10019000000000000000000000000000000000005F
:1001A000000000000000000000000000000000004F
:1001B000000000000000000000000000000000003F
:1001C000000100000010000000000000000000001E
:1001D000000004000000000000000000000000001B
:1001E000000000000000000000000000000000000F
:1001F00000000000000000000000000000000000FF
:10100000D10020410020006000000000000000002E
:1010100020100060001000600000000000000000D0
:10102000000000600000800000000000FFFFFFFFE4
:102000000000022071240060BD240060C124006033
:10201000B9240060B9240060B92400600000000009
:10202000000000000000000000000000C524006067
:10203000B924006000000000C9240060253200605F
:10204000D1240060D5240060D9240060DD24006024
:10205000E1240060E5240060E9240060ED240060D4
:10206000F1240060F5240060F9240060FD24006084
:102070000125006005250060092500600D25006030
:1020800011250060B9240060B9240060B924006003
:1020900015250060192500601D25006021250060C0
:1020A00025250060292500602D2500603125006070
:1020B00035250060392500603D2500604125006020
:1020C00045250060492500604D25006051250060D0
:1020D0005525006059250060B9240060B9240060CE
:1020E000B9240060B9240060B9240060B9240060FC
:1020F000B9240060B9240060B9240060B9240060EC
:10210000B9240060B9240060B9240060B9240060DB
:10211000B9240060B9240060B9240060B9240060CB
:102120005D2500606125006065250060692500600F
:102130006D250060B9240060B9240060B9240060F6
:10214000B9240060B9240060B9240060B92400609B
:10215000B9240060B9240060B9240060B92400608B
:10216000B9240060B9240060B9240060B92400607B
:10217000B9240060B9240060B9240060B92400606B
:10218000B9240060B9240060B9240060B92400605B
:10219000B9240060B9240060B9240060B92400604B
:1021A000B9240060B92400607125006075250060C5
:1021B000B9240060B9240060B9240060B92400602B
:1021C000B9240060B9240060B9240060B92400601B
:1021D000B9240060B9240060B9240060B92400600B
:1021E000B9240060B9240060B9240060792500603A
:1021F0007D250060B9240060812500608525006090
:10220000B9240060B1370060892500608D25006029
:10221000B9240060B9240060B9240060B9240060CA
:10222000B9240060B9240060B9240060B9240060BA
:10223000B9240060B9240060B9240060B9240060AA
:10224000B9240060B9240060B9240060B92400609A
:10225000B9240060B9240060B9240060B92400608A
:10226000B9240060B9240060B9240060B92400607A
:10227000B9240060B9240060B9240060B92400606A
:10228000B9240060B9240060B9240060B92400605A
:10229000B9240060B9240060B9240060B92400604A
:1022A000912500609525006099250060B9240060A3
:1022B0009D250060B9240060B9240060B924006045
:1022C000B9240060B9240060B9240060B92400601A
:1022D000B9240060B9240060B9240060B92400600A
:1022E000B9240060B9240060B9240060B9240060FA
:1022F000B9240060B9240060B9240060B9240060EA
:10230000B9240060B9240060B9240060B9240060D9
:10231000B9240060B9240060B9240060B9240060C9
:10232000B9240060B9240060B9240060B9240060B9
:10233000B9240060B9240060B9240060B9240060A9
:10234000B9240060B9240060B9240060B924006099
:10235000B9240060B9240060B9240060B924006089
:10236000B9240060B9240060B9240060B924006079
:10237000B9240060B9240060B9240060B924006069
:10238000B9240060B9240060B9240060B924006059
:10239000B9240060B9240060B9240060B924006049
:1023A000B9240060B9240060B9240060B924006039
:1023B000B9240060B9240060B9240060B924006029
:1023C000B9240060B9240060B9240060B924006019
:1023D000B9240060B9240060B9240060B924006009
:1023E000B9240060B9240060B9240060B9240060F9
:1023F000B9240060B9240060B9240060FFFFFFFF2A
:10240000A3F5803A704700BF154B002B08BF114B56
:102410009D46FFF7F5FF00218B460F461148124AF3
:10242000121A03F02DFF0C4B002B00D098470B4BDA
:10243000002B00D098470020002104000D000B481D
:1024400003F0A4FE03F0E2FE2000290000F05EFE8F
:1024500003F0A2FE000008000000000000000000E1
:102460000000022000080020DC1E0020C161006086
:1024700072B60A480A4901600A6882F30888094866
:1024800080470949094A0A4B9A42BEBF51F8040BDA
:1024900042F8040BF8E762B60648804708ED00E012
:1024A00000200060FD3800608C8400600000002087
:1024B000A000002009240060FFF7FEBF3848004755
:1024C00038480047384800473848004738480047F0
:1024D00038480047384800473848004738480047E0
:1024E00038480047384800473848004738480047D0
:1024F00038480047384800473848004738480047C0
:1025000038480047384800473848004738480047AF
:10251000384800473848004738480047384800479F
:10252000384800473848004738480047384800478F
:10253000384800473848004738480047384800477F
:10254000384800473848004738480047384800476F
:10255000384800473848004738480047384800475F
:10256000384800473848004738480047384800474F
:10257000384800473848004738480047384800473F
:10258000384800473848004738480047384800472F
:10259000384800473848004738480047384800471F
:1025A000BD240060C1240060C5240060C92400600F
:1025B00025320060B9240060B9240060B9240060AD
:1025C000B9240060B9240060B9240060B924006017
:1025D000B9240060B9240060B9240060B924006007
:1025E000B9240060B9240060B9240060B9240060F7
:1025F000B9240060B92400603D4100605D41006085
:102600007D4100609D410060BD410060DD41006092
:10261000FD4100601D420060B9240060B9240060E3
:10262000B9240060B9240060B9240060B9240060B6
:10263000B9240060B9240060A93C0060E53C00605A
:10264000B9240060B9240060B9240060B924006096
:10265000B9240060B9240060B9240060B924006086
:10266000B9240060B9240060B9240060B924006076
:10267000B9240060B9240060B9240060213D0060E5
:10268000B924006053B94AB9002908BF00281CBF0B
:102690004FF0FF314FF0FF3000F00CB8ADF1080CF7
:1026A0006DE904CE03F004FCDDF804E0DDE902236B
:1026B00004B07047704700BF034613F8012B002A8F
:1026C000FBD1181A0138704700000000000000001C
:1026D00001F0FF01102A2BDB10F0070F08D010F8D3
:1026E000013B013A8B422DD010F0070F42B3F6D1D7
:1026F000F0B441EA012141EA014122F007047FF0F0
:1027000000070023F0E80256083C85EA010586EA46
:10271000010685FA47F5A3FA87F586FA47F6A5FA82
:1027200087F68EB9EED1F0BC01F0FF0102F007028E
:1027300032B110F8013B013A83EA010313B1F8D139
:102740000020704701387047002D06BF354603381A
:10275000073815F0010F07D1013015F4807F02BF53
:10276000013015F4C03F0130F0BC0138704700BFA4
:1027700010B5054C237833B9044B13B10448AFF3BB
:1027800000800123237010BD00080020000000001D
:102790006484006008B5034B1BB103490348AFF3E1
:1027A000008008BD00000000040800206484006070
:1027B00038B5C3B2C0F30425820EC0F34C3003F128
:1027C0008043A940A840202A03F57C231C6881EAA5
:1027D000040100EA010080EA0400186006D9074BF2
:1027E00040F2BC51064A074803F0B2FC05D0012371
:1027F000054993408A6C1A42FCD138BD3B74006095
:10280000897400605974006000C00F4038B5C3B2CD
:10281000C0F30425820EC0F34C3003F18043A9407D
:10282000A840202A03F57C231C6881EA040100EA01
:10283000010080EA0400186006D9074B4FF4B1612B
:10284000064A074803F084FC05D00123054993405C
:102850008A6C1A42FCD138BD3B7400607C74006005
:102860005974006000C00F40030A084900F01F00BF
:1028700001EB830103238340DB4351E8002F1A401F
:1028800041E800200028F8D1704700BF68C00F4021
:1028900038B54FF40042DC4B00201A60DB4BD3F814
:1028A000C02242F48032C3F8C022D3F8C02222F4FE
:1028B0000032C3F8C022D64BD64A1A6001F08CF819
:1028C00001F0BCF8012001F0ADF8D34A0121D34852
:1028D000136823F0FF0343F07F031360FFF796FFB5
:1028E0000121CF48FFF792FFCE4AD36823F01F03A0
:1028F00043F01303D3601368002BFCDA0021CA48AD
:10290000FFF756FF4FF48870FFF7AEFF4FF4847067
:10291000FFF7AAFF40F21620FFF7A6FF4FF406705C
:10292000FFF7A2FF40F20E20FFF79EFF0321BF48F2
:102930004FF48035FFF73CFF0121BD48FFF738FF1A
:102940000021BC48FFF734FF4FF48A70FFF78CFF7B
:102950004FF48B70FFF788FF1820FFF785FF1A20D0
:10296000FFF782FF4FF48670FFF77EFF2021B24809
:10297000FFF71EFF40F20260FFF776FF0121AF482C
:10298000FFF716FF0021AE48FFF740FF40F204605A
:10299000FFF76AFF0121AB48FFF70AFF0021AA48B1
:1029A000FFF734FF4FF44170FFF75EFF04214FF251
:1029B0001400964CFFF7FCFE0021A448FFF726FF09
:1029C0000021A348FFF722FF40F20270FFF74CFFFF
:1029D0000121A048FFF7ECFE03219F48FFF716FFF7
:1029E00040F20220FFF740FF01219C48FFF7E0FE84
:1029F00000219B48FFF70AFF4FF48070FFF734FF78
:102A00004FF48170FFF730FF4FF48270FFF72CFF17
:102A10004FF48370FFF728FF03219248FFF7C8FEA9
:102A200002219148FFF7F2FE1620FFF71DFF032158
:102A30008E48FFF7BDFE02218D48FFF7E7FE40F20A
:102A40001250FFF711FF03218A48FFF7B1FE012161
:102A50008948FFF7ADFE00218848FFF7D7FE40F216
:102A60001450FFF701FF03218548FFF7A1FE012164
:102A70008448FFF79DFE00218348FFF7C7FE40F220
:102A80001650FFF7F1FE03218048FFF791FE012168
:102A90007F48FFF78DFE00217E48FFF7B7FE40F22A
:102AA0000620FFF7E1FE4FF40270FFF7DDFE40F273
:102AB0000A20FFF7D9FE00217748FFF779FE0021B1
:102AC0007648FFF7A3FE0E20FFF7CEFE1220FFF799
:102AD000CBFE40F20670FFF7C7FE1020FFF7C4FEE2
:102AE0001420FFF7C1FE4FF4E160FFF7BDFE0021A7
:102AF0006B48FFF75DFE02216A48FFF787FE4FF43F
:102B0000A360FFF7B1FE1C20FFF7AEFE0C20FFF71D
:102B1000ABFE4FF48C70FFF7A7FE40F20230FFF7D8
:102B2000A3FE40F20630FFF79FFE40F21A50FFF777
:102B30009BFE40F20E60FFF797FE00215A48FFF718
:102B400037FE00215948FFF761FE40F20A30FFF7D7
:102B50008BFE01215648FFF72BFE03215548FFF756
:102B600027FE05215448FFF751FE40F20E50FFF7B3
:102B70007BFE01215148FFF71BFE07215048FFF75C
:102B800017FE03214F48FFF741FE40F20250FFF7C6
:102B90006BFE01214C48FFF70BFE07214B48FFF766
:102BA00007FE03214A48FFF731FE4FF44070FFF75C
:102BB0005BFE01214748FFF7FBFD07214648FFF771
:102BC000F7FD03214548FFF721FE00214448FFF7A8
:102BD0001DFE444800F064FF434800F083FF1B21C2
:102BE000002001F049F81021012001F045F81821DA
:102BF000022001F041F81021032001F03DF8656347
:102C000000F0F0FF72E000BFF008002000800D40EF
:102C1000F408002000366E0100C00F40186C0080E0
:102C2000143900140000084014EA000414680080FD
:102C300010E0004014FB00801CE0078024EB0080C3
:102C40001C30008024F000801C310080142700809C
:102C50001426008018FD0080186800803CEB00807E
:102C60003C69008018FA0080186400802479008094
:102C7000186E008028E6008028E007801C6A00802B
:102C80002CE600802CE007801C6C008028F6008079
:102C900028F007801C6E008038F3078038320080EF
:102CA00020E207802068008024E00780242600803E
:102CB00038EC008018F7008038EF008030F9008091
:102CC00030F600803074008030EC008030E9008005
:102CD0003067008028E9008028F900802073008098
:102CE0000C200080B07400609C7400606567D4F8AC
:102CF000703123F40043C4F87031D4F8703123F4F8
:102D00000003C4F87031236F43F40053236700F0CD
:102D100071FFD4F8A03041482B43C4F8A030D4F858
:102D2000703123F04043C4F87031D4F8A03043F43C
:102D30000053C4F8A03000F065FFC4F8E45000F080
:102D40004BFF6562236A0321354843F40053236235
:102D5000FFF75CFD00213348FFF758FD00213248A2
:102D6000FFF754FD00213148FFF750FDD4F86031E2
:102D700023F01F03C4F860312D4B1A6E22F070024D
:102D80001A661A6E22F00F0242F001021A661A6EDB
:102D900022F460021A661A6E22F4F81242F49012BB
:102DA0001A661A6E22F480721A661A6E22F0800277
:102DB0001A661A6E22F080721A66A3F5A0235A686A
:102DC00022F007025A605A6822F038025A605A68A4
:102DD00022F0C0025A605A6822F440725A605A685F
:102DE00022F440625A609A6822F09F6222F4E02244
:102DF0009A605A6822F400325A605A6822F480229B
:102E00005A605A6922F080525A615A6922F000527F
:102E10005A61084B084A1A6038BD00BF96740060BA
:102E20001872008014390014186C00801C26008071
:102E300000C00F40180000200046C323FFF728BD44
:102E4000BFF35F8F094B5A6A22F480325A62D3F87B
:102E5000942022F00102C3F89420BFF34F8FBFF3F8
:102E60006F8F034A0349044801F074B800ED00E095
:102E700000B4C404B874006000C01940FFF7E0BF9C
:102E8000F0B59A4A91B002F1780353E8003F43F05D
:102E90000C0302F1780141E80034002CF3D1012643
:102EA0006A461A219248ADF8006003278DF8024067
:102EB00000F0ACFF01AA1B218D488E4DADF80460D7
:102EC0008DF8064000F0A2FF02AA1E218848ADF846
:102ED00008608DF80A4000F099FF03AA1F2184487A
:102EE000ADF80C608DF80E4000F090FF04AA21466A
:102EF0002846ADF810408DF8127000F087FF6B691E
:102F000005AA2846022133436B61ADF814408DF8C1
:102F1000167000F07BFF6B693946284643F00403C6
:102F20006B61754B1A889B78ADF8182006AA8DF84E
:102F30001A3000F06BFF07AA28460A21ADF81C40A2
:102F40008DF81E7000F062FF6B6908AA28460B21FD
:102F500043F480636B61ADF820408DF8227000F07F
:102F600055FF6B6909AA28460C2143F400636B6185
:102F7000ADF824608DF8264000F048FF0AAA2846E4
:102F80001021ADF828408DF82A7000F03FFF6B69E2
:102F90000BAA2846112143F480336B61ADF82C4015
:102FA0008DF82E7000F032FF6B690CAA042143F4F7
:102FB00000336B6105F50045ADF8306028468DF8AB
:102FC000324000F023FF0DAA28460521ADF83460F9
:102FD0008DF8364000F01AFF0EAA28460621ADF8FB
:102FE00038408DF83A7000F011FF6B690FAA28463F
:102FF000082143F040036B61ADF83C408DF83E7012
:1030000000F004FF6B690522022143F2F10043F452
:1030100080736B61394BC3F8C440C3F8C840C3F830
:103020005064C3F81C11C3F82011C3F84C14C3F842
:103030002421C3F82821C3F83421C3F83821C3F868
:103040003C21C3F84421C3F84821C3F86421C3F8E4
:103050006821C3F86C21C3F87C21C3F880215A622F
:103060009A62DA625A630922C3F89010C3F85C6569
:10307000C3F89410C3F85865C3F8A420C3F8A82077
:103080001F4AC3F88C47916E21F04C419166D16E76
:1030900021F4473121F00D01D166516F21F4B8714F
:1030A000516743F2B001174AC3F81413C3F8180369
:1030B000C3F82413C3F82813C3F82C23C3F834230C
:1030C000C3F83813C3F85423C3F85823C3F85C0378
:1030D000C3F86C23C3F87023C3F81402C3F81812A2
:1030E000C3F81C22C3F8242211B0F0BD00C00F4069
:1030F00000801B4000C01B403874006000801F40EF
:1031000000C00A40B0300100FFF7BABE1FB5FFF79C
:1031100095FE00F051FBFFF7F7FFFFF7AFFE00F061
:1031200095FA002001F072F9304B4FF47A721B6867
:10313000B3FBF2F3013BB3F1807F0AD24FF0E02200
:10314000F02153612A4B83F8231000239361072356
:103150001361284B1A68500604D52749684603F0C6
:10316000DFFAFEE71B68D90504D52449684603F059
:10317000D7FAFEE7224B1A68520504D52149684662
:1031800003F0CEFAEDE71A68940304D51E496846A9
:1031900003F0C6FAE5E71A68D00304D51B49684670
:1031A00003F0BEFADDE71A68110504D51849684630
:1031B00003F0B6FAD5E71A68D20704D51549684670
:1031C00003F0AEFACDE71B685B0704D512496846E9
:1031D00003F0A6FAC5E71149684603F0A1FA4FF0DB
:1031E000FF320F4B1A6000F051F8BAE718000020C8
:1031F00000ED00E000401C40CC740060D57400601D
:1032000000C01B40DC740060E8740060F57400606E
:10321000FB74006001750060077500600D7500604B
:103220000000002010B5154C2368C3F30803B3F564
:10323000807F1CD1124B1A6801321A60114A19683A
:103240001268914205D8012203210F4800F086FD43
:1032500001E000221A60236800214FF0FF300133A3
:10326000236001F083FABDE8104000F00FBA226835
:10327000C2F30802002AEED1E6E700BF20080020D2
:103280001C0800200000002000C01B40F7B50023F0
:103290009D4C0125052743F2B00601AA18219B4841
:1032A0008DF80630ADF8045000F0B0FD01AA0221FF
:1032B0009648C4F81C71C4F80C6300F0A7FD01AA7D
:1032C00016219348C4F8C470C4F8B46200F09EFD9F
:1032D00001AA1F218F48C4F8A470C4F8946200F0BA
:1032E00095FD2A4618218948C4F89070C4F8806278
:1032F00000F034FD2A460221844800F02FFD2A46C2
:103300001621834800F02AFD002002F0D5FB00289A
:10331000FAD0814800F028FA00F034FA00F0DF001B
:103320005928F9D17D4800F01FFA7D4800F01CFAB9
:103330007C4800F019FA01221E21744800F00EFDAD
:10334000794800F011FA00F01DFA00221E216F48A2
:1033500000F004FD754800F007FA754800F004FA23
:1033600001221A21694800F0F9FC724800F0FCF9CA
:1033700000F008FA00221A21644800F0EFFC6E48C1
:1033800000F0F2F96D4800F0EFF9012205216148E3
:1033900000F0E4FC6A4800F0E7F900F0F3F90022DD
:1033A00005215C4800F0DAFC664800F0DDF966486B
:1033B00000F0DAF901221F21544800F0CFFC6348E5
:1033C00000F0D2F900F0DEF900221F214F4800F092
:1033D000C5FC5F4800F0C8F95E4800F0C5F901225D
:1033E0001B214A4800F0BAFC5B4800F0BDF900F030
:1033F000C9F900221B21454800F0B0FC574800F0F5
:10340000B3F900F0BFF901220421424800F0A6FC04
:10341000534800F0A9F900F0B5F9002204213D4815
:1034200000F09CFC4F4800F09FF900F0ABF901223E
:103430000C214D4800F092FC4C4800F095F900F04A
:10344000A1F900220C21484800F088FC484800F00F
:103450008BF900F097F9474800F086F9002218210F
:103460002A4800F07BFC444800F07EF900F08AF91D
:1034700001221821254800F071FC404800F074F941
:1034800000F080F900220221204800F067FC3C484F
:1034900000F06AF900F076F9012202211B4800F0E1
:1034A0005DFC384800F060F900F06CF9002216214C
:1034B000174800F053FC344800F056F900F062F968
:1034C00001221621124800F049FC304800F04CF966
:1034D00000F058F901221F210E4800F03FFC2C4853
:1034E00000F042F900F04EF900221F21094800F0D7
:1034F00035FC284800F038F900F044F9264800F07F
:1035000033F903B0F0BD00BF00801F4000801B40B6
:1035100000001C4000401C401475006028750060CD
:1035200037750060467500605B75006089750060E6
:10353000A1750060B7750060E6750060FF750060FA
:1035400015760060447600605D76006073760060FA
:10355000A2760060BB760060F6760060827700603D
:103560005B780060E778006000C01B40C0790060B5
:103570004C7A0060257B0060447B0060BA7B006071
:10358000307C0060A67C00601C7D0060927D006045
:10359000087E00605F7E0060B57E00600048704776
:1035A000ED7F0060004870474D7F006010B500F06F
:1035B0000FFF064C064B4B220649022808BF214646
:1035C000184602F04FFE0722427010BDA27F006035
:1035D00064080020577F006008B500F0F9FE034A38
:1035E000034B022814BF1046184608BDA27F006096
:1035F000577F006010B568B9124B1B681A88124BD0
:103600005A80012301331048DBB25B0043F440735E
:10361000038010BD042813D80A4B53F820402046DD
:10362000FFF74AF8084AC3B220461F2B28BF1F23C2
:10363000E1188842E6D010F8014B22F8024FF8E773
:103640000020E6E7040000202408002010B50C4C00
:103650000020214600F09CFA2146002000F0F8F9F5
:10366000084B09491A6B42F440421A6300221A605F
:103670001A6922F00F1222F470621143196110BD11
:1036800000389C1C00900D400C0606002DE9F0410E
:10369000002092B002F026FA00283CD002AC02A929
:1036A0004022002002F02AFA26460546471C012146
:1036B000214BDFF88CC01A783F2A01D88F4204D101
:1036C00000261E4FDFF87C8020E016F8010B08284A
:1036D00001D07F2807D11A782AB11A78013AD2B2DC
:1036E0001A700131E7E71A785FFA82FE0132D2B22E
:1036F0001A700CF80E00F4E714F8013B0D2B0DD1F5
:10370000022241460136002002F04CFAAE42F3D1CB
:10371000002002F007FA12B0BDE8F081082B01D0BA
:103720007F2B02D104223946ECE701220DF107017B
:103730008DF80730E6E700BFAF080020FF7F00608C
:10374000B0080020FC75006013B5012204460DF19D
:1037500007018DF80700002002F024FA002002F093
:10376000E1F9204602B010BD70B506460024FEF710
:10377000A3FF0546AC4200DB70BD305D0134FFF7AE
:10378000E3FFF7E7084B094A10B519780029FCD088
:1037900019780139515C0D29F7D1197800240139C4
:1037A000545410781C7010BDAF080020B0080020E1
:1037B000002001F001BE0000494AF8B5546914F038
:1037C000007439D0936903F44053B3F5805F2FD070
:1037D000B3F5005F24D06BBBA2F510321169C903A9
:1037E00016D5126912F4404F3E4A08BF13463C4AB0
:1037F0005269C2F3C2620132B3FBF2F4384B3A4A67
:103800005B69C3F382230133B4FBF3F31360F8BDA8
:103810001369364A13F0020F354B18BF1346E6E71B
:10382000344B1B6B13F4404F2E4B18BF0023DEE7C5
:103830002C4BDCE70023DAE72E4B1A6812F4803FAA
:10384000284A2ED0196811F4404F14BF002616469E
:103850001A6B1B6BD2032AD513F4404F214D18BFAE
:103860000025244F00231F48396D3A6EA1FB00014B
:10387000FEF708FF1A4A2844936903F44023B3F57E
:10388000002F25D01AD843B3B3F5802FB6D1D7F87F
:103890000031C3F30543B0FBF3F0122303FB00F444
:1038A000ACE71E6806F07F0656437608D0E713F0B3
:1038B000010F0F480D4D08BF0546D2E7B3F5402F65
:1038C0009CD1136903F007030133B6FBF3F495E7CA
:1038D000D7F8003103F03F03DDE704468EE700BF71
:1038E00000C00F4000366E011800002000A4781FB1
:1038F00000389C1C00800D4070470000314A32495E
:1039000008B5D2F8883043F47003C2F888300B89C8
:103910002E4A23F001031B041B0C0B81138923F097
:1039200001031B041B0C13810B88580705D50B885A
:1039300023F004031B041B0C0B8013885B0705D5C5
:10394000138823F004031B041B0C1380204B1A68FC
:10395000900430D51F4A5A604FF6FF729A601A6879
:1039600022F0A00242F020021A604FF0E0231A6910
:10397000D10703D51A6922F001021A61114B5A6965
:10398000920315D45A6912F4003211D1BFF34F8F4C
:10399000BFF36F8FC3F85022BFF34F8FBFF36F8F0A
:1039A0005A6942F400325A61BFF34F8FBFF36F8FF1
:1039B000FFF7A2FF08BD4CF220525A604DF62812C4
:1039C000C9E700BF00ED00E000800B4000000D40A3
:1039D00000C00B4020C528D908B528B10D4BC12126
:1039E0000D4A0E4802F0B4FB0D4B4FF08042C3F875
:1039F0005821D3F87022D103FBD54FF48032C3F89D
:103A00005421D3F850211204FBD54FF48032C3F86F
:103A1000582108BD04800060388000601380006079
:103A200000800D40044B102210B9C3F87422704777
:103A3000C3F87822704700BF00800D40034AD2F8D7
:103A4000703243F00103C2F87032704700800D40BD
:103A5000104AD2F8803043F00303C2F8803002F5F8
:103A6000F212D2F8403143F00203C2F840310A4B5F
:103A700000BF013BFCD1094A0120D2F8203123F4D8
:103A8000F85323F0010343F4B85343F00103C2F8A1
:103A90002031704700C00F40801A060000800D40A2
:103AA0000F4A037911689B0321F4E0319BB20B4369
:103AB00043F4803313601168036821F4415103F02B
:103AC0007F0321F03F010B4343F40053136013685D
:103AD000002BFCDA136823F480331360704700BFB7
:103AE00000800D40184B027B196B920321F4E031EA
:103AF00092B20A4342F480321A63196B027821F4BD
:103B0000405102F0010221F001010A4342F4005247
:103B10001A63426822F040421A65826822F04042ED
:103B20001A66428AC189C2F30E0242EA0142017C4E
:103B3000C90389B20A431A641A6B002AFCDA1A6BA9
:103B400022F480321A63704700800D400F4A437898
:103B500011699B0321F4E0319BB20B4343F48033A2
:103B600013611169037821F441515B0021F00201D6
:103B700003F002030B4343F4415313611369002B19
:103B8000FCDA136923F480331361704700800D4021
:103B900008B50E4B1A69920414D51A6942F0400216
:103BA0001A610B4B01201A6B22F000421A631A6B48
:103BB00022F080421A6300221A601A6B42F4C61285
:103BC0001A6308BD0348FFF7C1FFEAE700800D4014
:103BD00000900D4036800060014B00221A62704751
:103BE00000800D40024B4FF480521A67704700BFAF
:103BF00000800D40024B4FF48052C3F8A020704764
:103C000000800D40437982789B001A4902F003023C
:103C100003F00C031343C27810B59203D1F8E040CF
:103C200092B224F4E034224342F48032C1F8E0201E
:103C300002780AB143F4005302790AB143F48013C5
:103C400042780AB143F40013D1F8E02022F4805204
:103C500022F00F021A43074BC1F8E020D3F8E0200E
:103C6000002AFBDAD3F8E02022F48032C3F8E02007
:103C700010BD00BF00800D4010B5C000094CBF232F
:103C800001F03F01D4F800218340814022EA030281
:103C90008023834011431343C4F80031C4F800115A
:103CA00010BD00BF00800D4008B5084B596831B900
:103CB000074B41F2AD11074A074802F049FA074B9A
:103CC00007481B689847BFF34F8F08BDFC080020CA
:103CD0008E8000600B81006069800060F808002021
:103CE00000001D4008B5084B996831B9074B41F2F7
:103CF000B811074A074802F02BFA074B07481B6820
:103D00009847BFF34F8F08BDFC080020A9800060D2
:103D1000F580006069800060F808002000401D40C8
:103D200008B5084BD96831B9074B41F2C311074AAE
:103D3000074802F00DFA074B07481B689847BFF386
:103D40004F8F08BDFC080020C4800060DF80006049
:103D500069800060F808002000801D401F2908B518
:103D600005D9084B7521084A084802F0F1F90123EA
:103D700003FA01F112B9C0F8881008BDC0F8841028
:103D8000FBE700BF218100607D8100602B81006026
:103D900030B50124C3690F2902F1FF3204FA01F49E
:103DA00088BF103923EA0403C36194BF00F10C03F8
:103DB00000F11003042A0BD8DFE802F0030B151DF5
:103DC0002300480003211A68814022EA01021A6098
:103DD00030BD4C0003201A680121A04022EA0002F5
:103DE000A1400A43F3E74C0003201A680221A040D7
:103DF00022EA0002F4E74900032218688A400243DD
:103E0000E5E7C3691C43C461E2E70000F8B5174663
:103E100004460E46254A002352F8041B8C4208D063
:103E200001330B2BF8D1224B3C21224A224802F0CD
:103E30008FF9052B12D901256269B54022EA0502E6
:103E4000EB4362613A7842BB626813406360BA78C0
:103E500031462046BDE8F840FFF79ABF174A32F9CD
:103E600013305A1CE7D0B3F5006F4FEA132103F06B
:103E70001F0005D3124B40F2DE51124A1248D6E71A
:103E8000124A02EB81020321814052E8003F0B43BA
:103E900042E800300028F8D1CDE77A783146204654
:103EA000FFF75CFF63681D436560D0E7BC8100607D
:103EB0004D8100609D8100602B810060AE810060BB
:103EC000708100608B8100605974006068C00F4091
:103ED000B0F5006F4FEA102200F01F0310B506D3B3
:103EE0000B4B40F2DE510B4A0B4802F031F90B4804
:103EF000994000EB820003229A40D24350E8003FF1
:103F000013400B4340E80034002CF7D110BD00BF34
:103F100070810060F58200605974006068C00F40D5
:103F200008B5084A0346002052F8041B994208D0FD
:103F300001300928F8D1044B7B21044A044802F0DF
:103F400007F908BD388300601982006013830060A0
:103F5000F58100602DE9F04704460D4629B96E4B06
:103F6000F2216E4A6E4802F0F3F80B681BB96D4BF4
:103F7000F3216A4AF6E7097A032903D96A4BF52146
:103F8000664AEFE7697A032900F2B7804FF00A0921
:103F900000264FEA83089E4609FB02FA4FF0040C04
:103FA0003746BAFBF8F105319844B1FBF9F189B213
:103FB000012938BF01210CFB01F0B2FBF0F0834274
:103FC00034BFC01A181A704598BF5FFA8CF60CF10E
:103FD000010C9CBF86460F46BCF1210FE1D1642243
:103FE000B3FBF2F303EB43037345C0F0928020462A
:103FF000C7F30C07FFF794FF4C4B032133F9100074
:10400000FFF766FFA368321F013E43F00203032A55
:104010004FEA0666A360A36806F0F85623F0020391
:10402000A360236998BF43F4003323F01F2323F0D8
:10403000FF0333431F432761236923F000532361A8
:10404000A369EA7B23F4E2632979120223F00703D0
:1040500002F4E0620B431A43AB7B9B0003F00403C2
:1040600013436A79012A4FD100294AD023F400630F
:10407000A361EB7922695B0322F4005203F400533D
:10408000134323616A7A2B7A43EA0243E362A36A09
:1040900043F08803A362A36A43F44043A3626B7BAB
:1040A0002A7B1B01616A520103F0100302F0200217
:1040B00013430B436362AB7A1BB1636A43F008039B
:1040C0006362EB7A1BB1636A43F001036362A9790F
:1040D000174B184A002918BF1A46636913436361D6
:1040E0002A7CA3690AB143F400236A7C0AB143F431
:1040F00080230020A361BDE8F0870F4BF621074A1B
:1041000030E743F40063B3E70029B1D043F0100374
:10411000AEE740F22150EEE73E8200600783006088
:10412000F58100604D820060678200602683006038
:1041300000C01FE000C01FC0AE82006008B5044A86
:10414000044B51681B6804489847BFF34F8F08BD64
:10415000100900200C0900200040184008B5044A4E
:10416000044B91681B6804489847BFF34F8F08BD04
:10417000100900200C0900200080184008B5044AEE
:10418000044BD1681B6804489847BFF34F8F08BDA4
:10419000100900200C09002000C0184008B5044A8E
:1041A000044B11691B6804489847BFF34F8F08BD43
:1041B000100900200C0900200000194008B5044A2D
:1041C000044B51691B6804489847BFF34F8F08BDE3
:1041D000100900200C0900200040194008B5044ACD
:1041E000044B91691B6804489847BFF34F8F08BD83
:1041F000100900200C0900200080194008B5044A6D
:10420000044BD1691B6804489847BFF34F8F08BD22
:10421000100900200C09002000C0194008B5044A0C
:10422000044B116A1B6804489847BFF34F8F08BDC1
:10423000100900200C09002000001A4000F0DEB830
:104240000378024613F0010008D113785B0706D407
:104250001378012043F00403137070470020704767
:1042600002780346C2F38000520709D51A7812F08B
:10427000010104D11A7861F382021A70704700209C
:1042800070478388C078C3F30A0300F00300022854
:1042900014D003281CD001280ED1022940F2FF328D
:1042A00008BF4FF480629A420ED24FF0E023D3F859
:1042B000F03DDB0700D500BE00207047022904D185
:1042C000B3F5007FF1D101207047402BFBD9ECE71B
:1042D000022914BF40224FF480629A42F3D2E4E7ED
:1042E0000A4430B5914200D330BD4C78052C06D13C
:1042F0008C7804F07F05E40900EB45052B550C781C
:104300002144EFE7094B63B1094B1B78834206D97F
:10431000084B00EB40001B6803EBC0007047C01A5D
:10432000C0B20028044818BF0020704700000000F9
:10433000F8090020FC0900205C83006070B50C4681
:1043400005461646C86800F055FDE3683246284623
:104350000121BDE87040184770B505460024134E92
:10436000E0B2FFF7CFFF38B94FF0E023D3F8F03DCC
:10437000DB0700D500BE70BD01344368284698476E
:104380003278E3B29A42EBD233220021084801F09E
:1043900077FF1022FF21074801F072FF1022FF2152
:1043A0000548BDE8704001F06BBF00BFF809002070
:1043B000000A0020030A0020130A00200346034AD3
:1043C00010780BB100F0AABE00F0BEBE3400002091
:1043D000014B9878704700BF000A0020024B5878C4
:1043E000003818BF01207047000A0020024B1878DF
:1043F000C0F38000704700BF000A0020024B18780D
:10440000FF3818BF0120704734000020F8B51B4E5C
:1044100004463378FF2B2ED133220021184801F0B7
:104420002FFF184801F002FB174B184A1A60184B6F
:1044300023B11848AFF30080174B18600025154FC3
:10444000E8B2FFF75FFF40B94FF0E023D3F8F03D4B
:10445000DB0700D500BE0020F8BD01350368984792
:104460003A78EBB29A42EBD22046347000F00CFE60
:10447000204600F053FE0120EEE700BF340000208C
:10448000000A002020000020340900201C00002029
:1044900000000000F8090020FC090020F0B5437876
:1044A00085B004460D46023B032B12D8DFE803F02B
:1044B000022D1C24384B00211A786FF300021A7069
:1044C0001A786FF341021A7059701A7861F38202F8
:1044D0001A70324B1E68371D002D5AD1284633689A
:1044E0009847214638463EE02B4B1A78D60748D5E8
:1044F0001A7842F00402EBE7274A1378D80740D530
:1045000013786FF382031370E3E70026244FF0B2B1
:10451000FFF7F8FE20B1436913B16168207898472E
:1045200001363A78F3B29A42F1D21B4A137859070E
:1045300027D513786FF3820313700023CDF806306C
:10454000CDF80A30ADF80E3023788DF8043005230D
:104550008DF80530114B1E68341DA5B92846336807
:10456000984701A9204601F031FA3368044601203A
:10457000984734B94FF0E023D3F8F03DDB0700D57E
:1045800000BE05B0F0BD01A9204601F01FFA0446A7
:10459000EFE721463846F8E7000A002034090020FA
:1045A000F809002038B50E4B0C461D788B7813F0B7
:1045B000780F08D04FF0E023D3F8F03DDB0700D5AB
:1045C00000BE002038BD074B20469978FFF759FE02
:1045D0000028EFD021462846BDE8384000F014BE40
:1045E00034000020000A00202DE9F04781460C46E7
:1045F00090469A460025DDE90867A84501DC0120C0
:104600000FE06378052B04D1E37803F003035345EF
:1046100009D04FF0E023D3F8F03DDB0700D500BE12
:104620000020BDE8F08721464846FFF7BBFF002881
:10463000EFD0A3780135DA0914BF3B7033702378CB
:104640001C44DAE7CB0901F07F0204480021233340
:1046500003EB42031844FFF7F3BD00BF000A00203C
:10466000CB0901F07F0204480021233303EB42030E
:104670001844FFF7F5BD00BF000A002070B501F037
:104680007F06134C134804EB4604007804EBD11466
:1046900094F823502034ED0708D54FF0E023D3F8E9
:1046A000F03DDB0700D500BE002070BDE57845F089
:1046B0000105E57000F04CFE0028F6D1E27860F3C9
:1046C0000002E270E27860F38202E270E5E700BF88
:1046D000000A00203400002010B501F07F020B4CCE
:1046E00004EB420404EBD11494F8233020349B07EC
:1046F0000BD4074B187800F043FDE37843F0020336
:10470000E370E37843F00103E37010BD000A00207A
:104710003400002010B501F07F020B4C04EB420482
:1047200004EBD11494F8233020349B070BD5074BAE
:10473000187800F045FDE3786FF34103E370E37808
:104740006FF30003E37010BD000A00203400002066
:1047500001F07F02044B03EB420303EBD11191F80C
:104760002300C0F340007047000A00202DE9F04FFD
:1047700087B0FFF763FD002800F08482AE4CAF4B9A
:1047800000201E68354655F8043B984703A9284683
:1047900001F0F4F80546336801209847002D00F039
:1047A00071829DF80D30013B072B00F29682DFE805
:1047B00013F0080012009402740282021E004102EB
:1047C0008D029DF80C00FFF7C7FD00F00BFB9DF874
:1047D0001030A370D3E79DF80C00FFF7BDFD00F08B
:1047E00001FB974B002BCAD0AFF30080C7E72378BB
:1047F00000209DF80C5043F00103237094F82330FF
:104800006FF3000384F8233094F823306FF38203AE
:1048100084F8233094F824306FF3000384F82430B4
:1048200094F824306FF3820384F8243000F0E2FA25
:104830009DF8106006F06002602A11D14FF0E0236D
:10484000D3F8F03DDD0700D500BE9DF80C00002137
:1048500000F096FC80219DF80C0000F091FC8EE7A2
:10486000402A0CD177480028EFD000F0C3FA04AA00
:1048700001212846AFF30080002880D1E5E706F04B
:104880001F06012E00F06A81022E00F09181002E99
:10489000D4D1202A0FD19DF814300F2BD5D8234422
:1048A000D878FFF72FFD01460028CED004AA28466D
:1048B000FFF744FDE0E7002AC0D19DF81130092B35
:1048C000BCD801A252F823F0474B0060354B006082
:1048D0003D480060214B00603D480060F1480060A9
:1048E0006B4A00603D4800600B4900602149006050
:1048F00004A800F085FA9DF81210284600F048FD43
:10490000237843F00203237039E763788DF80A3087
:1049100001230DF10A0204A9284600F037FA2EE718
:104920009DF812906378994537D063783BB128465B
:1049300000F0DEFCA6782846FFF70EFDA670B9F160
:10494000000F2AD009F1FF30C0B2FEF745FE10B1CA
:104950004378022B08D04FF0E023D3F8F03DDF0777
:104960007FF56CAF00BE69E7C37900F10906C3F3B8
:104970008012C3F340131B0143EA4213227822F052
:104980003002134323704388C3180093009BB34243
:104990000AD82D4B0BB1AFF3008084F8019004A925
:1049A000284600F0E1F9EAE673780B2B09BF33786B
:1049B0000127F778F6187378042BCCD1009B4FF0C1
:1049C000000B9B1B9BB201935FFA8BFA5046FFF7DB
:1049D00099FC80460028BED083683146019A28465B
:1049E00098470828024637D9019B834234D3012FC8
:1049F00005D1D8F80810154B994208BF02270021AD
:104A0000CBB29F420CD85346314611480192FFF772
:104A100067FC104B019A1B7816445345B6D29AE7AF
:104A2000B0780131034454FA83F3D878FF2892D147
:104A300083F803A0E4E700BF000A00203409002047
:104A4000000000000000000000000000595C006051
:104A5000130A0020F8090020A44B0BF1010B1A786F
:104A60005FFA8BF39A42AFD275E7BDF812301A0A9B
:104A7000D8B2531E0E2B3FF6E8AE01A151F823F039
:104A8000BD4A0060E74A0060FF4A00604B48006092
:104A90004B480060134B0060E74A00604B480060E1
:104AA0004B4800604B4800604B4800604B4800603A
:104AB0004B4800604B480060CF4A0060FEF76EFD37
:104AC0001223024604A9284600F060F9D4E6884B78
:104AD000002B3FF4BAAEAFF30080024600283FF44B
:104AE000ADAE4388EEE7022A02D1FEF775FDF4E78A
:104AF000804B002B3FF4A9AEFEF758FDEDE7BDF863
:104B00001410FEF777FD024600283FF49EAE0378AE
:104B1000D8E7794B002B3FF498AEFEF743FDF2E760
:104B2000BDF81230012B7FF490AE237843F00803D8
:104B3000237034E7BDF81230012B7FF486AE237862
:104B40006FF3C303F4E72378C3F340129B0803F029
:104B500002031343ADF80A300223DAE69DF814305D
:104B60000F2B3FF672AE2344D878FFF7CBFB0146FC
:104B700000283FF46AAE04AA2846FFF7DFFB0028AE
:104B80007FF4FDAD9DF8103013F060077FF45DAE4B
:104B90009DF811300A3B012B3FF657AE00F02AF981
:104BA0009DF811300A2B7FF4FAAE8DF80A70AFE64B
:104BB0009DF8141011F0780F7FF440AE01F07F03E0
:104BC00004EB430303EBD113D87CFFF79BFB0746B1
:104BD0002AB100283FF439AE04AA014667E69DF8E1
:104BE000113003F0FD02012A08D0002B7FF426AE1D
:104BF0002846FFF7ADFDADF80A00ADE7BDF812207D
:104C000022B9012B284612D1FFF784FD002F3FF473
:104C1000B6AD04AA39462846FFF790FB002000F005
:104C2000E9F894F82430DE073FF5A9ADB7E6FFF7C1
:104C300053FDEBE79DF8101001F07F0504EB4503F1
:104C400003EBD11393F823006FF3000083F82300E4
:104C500093F823006FF3820083F823003DB9059B8E
:104C60009DF811209DF80C0000F0D8F887E5D87C5D
:104C7000FFF748FB48B94FF0E023D3F8F03DD807E1
:104C800000D500BE07B0BDE8F08F0569059B9DF813
:104C900011209DF80C00A84771E52378D9077FF50E
:104CA0006EAD164B002B3FF46AAD2078C0F3C00008
:104CB000AFF3008063E52378DA077FF560AD104B32
:104CC000002B3FF45CADAFF3008058E5049B002B54
:104CD0003FF455AD0598984751E54FF0E023D3F8E0
:104CE000F03DDB077FF54BAD00BE48E5F80900203D
:104CF00000000000AD350060A53500600000000038
:104D000000000000124B70B599890546DA8993F9C5
:104D100000008C1AA4B2402C28BF402400280EDAD0
:104D2000914212D0996822460A4801F09BFA8021EC
:104D3000084A23462846BDE87040FFF79FBC9142D1
:104D40004FF00001F4D10A46F3E780210022F0E79A
:104D5000740A0020340A0020C943002301F08001B6
:104D60001A46FFF78BBC000030B4074C05460B46D3
:104D700008682246496803C200222846C4E9022284
:104D8000197830BCFFF7E8BF740A0020F8B5144E5C
:104D90000C460546086837464968B26003C70021DB
:104DA000F181E1888B4228BF0B46B381E18889B14C
:104DB0004BB142B94FF0E023D3F8F03DDB0700D50B
:104DC00000BE002005E02846FFF79CFF0028F1D038
:104DD0000120F8BD21782846FFF7BEFFF6E700BFA7
:104DE000740A002014220021014801F049BA00BFD2
:104DF000740A0020014B1861704700BF740A00203C
:104E000010B50246044C00685168234603C30023D2
:104E1000C4E9023310BD00BF740A002070B5294CEC
:104E20001E46C90905462378B1EBD31F15D03EB104
:104E30004FF0E023D3F8F03DDB0741D4002070BDF4
:104E4000214B13B12146AFF3008023691BB11D4AEA
:104E50000321284698470120F1E794F90030A06823
:104E6000002B05DB0028E9D03246184901F0FAF999
:104E7000E389A268334432449BB2A260E288E381B2
:104E80009A4201D03F2E17D8236933B9217828469A
:104E9000FFF762FF0028DED1CAE70221094A28464F
:104EA000984701460028F1D1284600F069F9802191
:104EB000284600F065F9CEE72846FFF723FFE9E72B
:104EC00000BEBBE7740A002000000000340A002086
:104ED0000C235843184B70B51D5802EB4100174C7A
:104EE00002F1200304EB801003EB4103C66804EBDE
:104EF00043136FF38616C6608360BFF34F8F0023A2
:104F00000F48E6182033B3F5C06FC0F87062F8D1CF
:104F1000BFF34F8FBFF36F8F19B9D5F8AC31DB07F3
:104F2000FBD4003A4FF0010318BF012201EB02113C
:104F30008B40C5F8B03170BD748300600010002054
:104F400000ED00E070B516460D4621F0030301F0B8
:104F50001C0206F11F0104460A44BFF34F8F194893
:104F60001A44C0F870322033D11A0029F9DCBFF39B
:104F70004F8FBFF36F8F1C220021201D01F080F99D
:104F80000123A6832360636843F080036360636842
:104F900066F31E436360637943F0800363717DB100
:104FA00023460949183443F8085F354453F8042B65
:104FB0000A4002F58052954202D99C421A60F5D10E
:104FC00070BD00BF00ED00E000F0FFFFF0B50C4643
:104FD0002B49064685B002EB44036000203301EB09
:104FE00043135D686F0609D45D682D0704D45B68C0
:104FF000C3F340179B060DD5012700E002270C23C1
:10500000204D04EB021C7343ED58012303FA0CF30B
:10501000C5F8B431831803F1200001EB431501EB0F
:105020004010B5F81C5401EB83114068C0F30E40EA
:105030002D1A086BADB200B3012A294619D100F030
:105040000DFD6FF07F0200231443012101A8CDF86C
:105050000630ADF80A3007238DF804608DF805306E
:105060008DF8084003958DF80970FFF717FA05B021
:10507000F0BD00F0EAFC0022E5E7D20152B2E2E71F
:1050800000100020748300604FF4C062002110B54E
:1050900004461F4801F0F4F80C235C431D4B1B59D8
:1050A000D3F8402142F00202C3F84021D3F8402156
:1050B00012F00202FAD10221C3F8A8110921C3F8A3
:1050C000A4111349BFF34F8F13488C182032B2F547
:1050D000C06FC0F87042F8D1BFF34F8FBFF36F8F2E
:1050E000C3F85811D3F84421C3F8442140F2071201
:1050F000C3F84821D3F8402122F47F02C3F84021AD
:10510000D3F8402142F00102C3F8402110BD00BF96
:10511000001000207483006000ED00E0084B0C22BA
:1051200002FB0033B3F90430002B08DB01225909DC
:1051300003F01F0302FA03F3024A42F821307047DA
:105140007483006000E100E00B4B0C2202FB003393
:10515000B3F90430002B0DDB5A09012103F01F03C2
:10516000994002F12003054A42F82310BFF34F8F04
:10517000BFF36F8F704700BF7483006000E100E0F1
:105180000C2358430D4B10B5185801F07F04C90982
:1051900000EB8402D2F8C0310AD043F480331021EE
:1051A000C2F8C0310C440123A340C0F8B43110BD93
:1051B00043F00103C2F8C031F4E700BF748300601C
:1051C0000C2301F07F02C90903FB00F00D4B1B58B3
:1051D00003EB8203D3F8C0210BD042F48002C3F862
:1051E000C0216FF48032D3F8C0110A40C3F8C02147
:1051F000704742F04002C3F8C0216FF00102D3F8BB
:10520000C011F2E7748300602DE9F843DFF8D8900D
:105210000C238D78074603FB00930E4605F07F04B0
:105220001B7AA34209D84FF0E023D3F8F03DDB0707
:1052300000D500BE0020BDE8F883ED09DFF8AC80A2
:105240004022002105EB440008EB801001F018F823
:1052500005EB4403620008EB8313D97841F0200189
:10526000D970B088598860F30A015980F17801F04B
:105270000301012902BFD87861F38710D870531950
:10528000012208EB83139A60BFF34F8F0023154A66
:1052900008EB03012033B3F5C06FC2F87012F7D1E9
:1052A000BFF34F8FBFF36F8F0C23F27824B25F43AD
:1052B00002F0030259F80730920003EB840342F036
:1052C000C002D3F8C01135B9090C09041143C3F861
:1052D000C0110120AFE789B241EA0242C3F8C02100
:1052E000F7E700BF00ED00E07483006000100020CD
:1052F0000C22154B4FF0081C50431A18F0B51C58DF
:105300000125167A0023114F591CCAB2964200D8C3
:10531000F0BD07EBC112D06802F1080E40F040006A
:10532000D060D06C40F04000D06403F1110205FA67
:1053300001F0713305FA02F20243C4F8B42144F8D3
:1053400023C00B46E0E700BF74830060001000201C
:10535000F8B50C4606460D4D114604F07F07E409EA
:105360001A4604F1200000EB470005EB4010FFF760
:10537000E9FD304604EB47032246394605EB831529
:1053800000232B63FFF7A4FD0120F8BD00100020CF
:1053900038B500230C46802105461A466406FFF7FF
:1053A000D7FF0C2344F080745D43024B5B59C3F874
:1053B000544138BD748300602DE9FF410C23894AB4
:1053C00005464343D458D118D4F84831D4F8446141
:1053D0001E40C4F84461002E00F0DE80700763D5E3
:1053E000D4F844315A0640F1EC804023C4F84431EB
:1053F000D4F8843113F0010300F0D680D4F884315E
:105400004FF00810097AC3F3816800230133DAB240
:10541000914200F2C480D4F87831C4F87831002386
:10542000C4F87C31D4F84431C4F84431D4F8AC31F8
:10543000C4F8AC31D4F8BC31C4F8BC31D4F8B031C4
:10544000002BFBD14FF0FF33C4F8B431D4F8B47162
:10545000002FFBD1644B4FF4C0623946184600F070
:105460000FFF6249B0F84220CDF806700A40CDF82F
:105470000A70ADF80E7042F401528DF804508DF8A8
:105480000880A0F8422042880A40012142F40152DB
:1054900081648DF8051042804278816042F080027C
:1054A000427001A8FEF7FAFFF30519D5D4F884314C
:1054B0001F0615D5D4F8543113F0F05F10D0002337
:1054C00001218DF80450CDF80630CDF80A30ADF842
:1054D0000E3004230DEB03008DF80530FEF7DEFFE0
:1054E000F00747D54048BFF34F8F0023404A1918B3
:1054F0002033B3F5C06FC2F87012F8D1BFF34F8FED
:10550000BFF36F8FD4F8BC71C4F8BC71D4F8AC3160
:10551000ABB1D4F8AC31C4F8AC3100238DF80450F1
:10552000ADF8063006238DF80530324B93E80300C2
:1055300004AB03E90300012101A8FEF7AFFFCFB1DF
:10554000002427FA04F35FFA84F8D90704D500226F
:1055500041462846FFF73AFD04F1100327FA03F30A
:10556000DA0704D5012241462846FFF72FFD013412
:10557000082CE6D133060FD50023012101A88DF8B0
:105580000450CDF80630CDF80A30ADF80E300323C4
:105590008DF80530FEF782FF04B0BDE8F08103F11D
:1055A000700244F8220031E7CDF80630CDF80A3019
:1055B000ADF80E3002238DF8045001218DF805302E
:1055C0006FE7D4F8843113F080037FF46DAFCDF82A
:1055D0000630CDF80A30ADF80E3005238DF80450B2
:1055E000EBE700BF748300600010002000D8FFFFCD
:1055F00000ED00E0281000200A44034690B28842E3
:1056000002D39A89824202D25B89184480B27047E1
:1056100082888A4210B504D88B1A84899BB29C4236
:1056200003D243891A44891A8BB2038210BDF8B59C
:105630009A42A2EB03041D468788A4B238BF43896F
:105640000E4611463CBFE41AA4B2A74202D23C4621
:10565000FFF7DEFF1CB920460BE0ED1BADB2AF42F9
:10566000FBD9C2880168304602FB051100F0FAFD43
:105670000120F8BD930813B501EB8303044699425A
:105680000BD112F0030206D0002301A8019300F011
:10569000E9FD019B236002B010BD51F8040B2060AE
:1056A000EDE72DE9F74FBDF830508846194684885C
:1056B000AB42A3EB050607469146B6B23EBF43890F
:1056C000F31A9EB2B44204D2FFF7A2FF058A26461F
:1056D000ADB206B34E4528BF4E46AC421FD9A4EB2F
:1056E0000509FA883B68341B1FFA89F119FB02F996
:1056F0002C4402FB05359DF8343014FB02F41FFAEC
:1057000089F9012BA4B217D08E420BD872432946D7
:10571000404600F0A7FD304603B0BDE8F08F2D1BDA
:10572000ADB2DAE74A462946404600F09BFD2246E4
:10573000396808EB0900ECE78E4207D816FB02F245
:10574000294692B24046FFF795FFE4E729F0030BA4
:10575000294640461FFA8BFB5A46FFF78BFF19F08C
:10576000030922D0C9F1040A002305EB0B014A46C4
:105770001FFA8AFA01A80193A24528BFA24600F0A9
:1057800071FD3D6801ABA4EB0A045246294603EBC8
:10579000090000F067FD019BA4B205EB0A01C8F8FF
:1057A0000030002CB7D02246CCE73968F9E79308DF
:1057B00000EB830313B5984209D112F0030204D021
:1057C0000B6801A9019300F04DFD02B010BD0C68FB
:1057D00040F8044BEFE72DE9F04F0746B0F80E9084
:1057E0008846008A397A164685B01FFA89F980B250
:1057F000BD88FA8899BB8145A9EB000138BF78893B
:1058000089B23CBF091A89B2691A89B28E4228BF8F
:105810000E464C46AC422AD2A5EB040A751B3868EA
:10582000012B25441FFA8AF11AFB02FA02FB040439
:1058300015FB02F51FFA8AFAADB225D08E4219D8AF
:1058400072434146204600F00DFD32464946384637
:10585000FFF7D2FEF881304605B0BDE8F08FAE42CA
:1058600021BF761B814602FB06882E46D1E7641BCA
:10587000A4B2CFE752464146204600F0F3FC2A4648
:1058800008EB0A013868DEE78E4207D816FB02F201
:105890004146204692B2FFF78AFFD6E72AF003037B
:1058A000414620469BB21A460193FFF780FF1AF04B
:1058B000030A1FD0CAF1040BD8F80020019B03A9EA
:1058C0001FFA8BFB0392E0185246AB4528BFAB464C
:1058D00000F0C8FC3B6803A9A5EB0B055A465144F0
:1058E000184600F0BFFC5844ADB2002DADD02A469A
:1058F0004146D0E73868F8E7B2F5004F10D882800B
:105900005200C38092B29DF8003001600372531EB2
:105910005242838100234281C38103820120704768
:1059200000207047C189028A89B292B29142A1EBEC
:10593000020338BF42899BB280883CBF9B1A9BB24E
:10594000984228BF18467047C289038A92B29BB218
:10595000D31A58425841704710B5C189028A89B29A
:10596000848892B29142A1EB020338BF42899BB274
:105970003CBF9B1A9BB2E01A80B210BD38B5C289F9
:105980000446038A92B29BB2FFF751FE218A054674
:10599000024689B22046FFF72FFE2082284638BDF6
:1059A00073B5C3890026058A04469BB2ADB2CDE922
:1059B0000056FFF776FE218A0546024689B2204648
:1059C000FFF71AFE2082284602B070BD38B5C5899F
:1059D0000446028AADB292B2AA42A5EB020388BF86
:1059E00042899BB288BF9B1A828888BF9BB29A4229
:1059F00014D1007A90B938BD801A80B29042FBD29F
:105A0000E288236802FB003000F02CFC01222946CA
:105A10002046FFF7F1FDE0810120ECE72846EDE7A5
:105A200012B10023FFF7D7BE104670470023C38191
:105A3000038283885B009BB25A1E5B428281438152
:105A40000120704701720120704710B50A46C189D4
:105A5000044689B2FFF7D0FDE08110BD10B50A46BB
:105A6000018A044689B2FFF7C7FD208210BD70B5D8
:105A700000F1100504462846FFF76EFFB0F5007FE1
:105A800019D3E1780020FEF7DDFDA0B12846FFF72D
:105A900063FFB0F5007FE17808D304F587624FF427
:105AA00000730020BDE87040FEF7E8BD0020BDE8AF
:105AB0007040FEF7D5BD70BD10B50446FEF78EFCF4
:105AC00008B9002010BDFEF791FC0028F9D1044868
:105AD00040F6380202FB0400007900F00100F1E713
:105AE0000016002040F6380208B5034B02FB0030D8
:105AF000FFF718FF08BD00BF1016002040F638035E
:105B000092B270B503FB00F4054E04F1100030446E
:105B1000FFF746FF05463019FFF7A9FF284670BD7D
:105B2000001600202DE9F0410446FEF757FC78B33B
:105B3000FEF75CFC064658BB40F63803DFF8608091
:105B40005C4304F1240545442846FFF7EBFEF8B119
:105B500008EB04073046B978FEF774FDC0B104F5D0
:105B6000C76428464FF4007244442146FFF718FFEB
:105B7000B978054688B1034622463046FEF77EFDD9
:105B800048B94FF0E023D3F8F03DDB0700D500BE65
:105B90000020BDE8F0812846FBE7FEF761FDF7E74E
:105BA0000016002070B540F638030A4D92B2044644
:105BB00003FB00552846FFF733FF06462846FFF74C
:105BC000B1FEB0F5007F02D32046FFF7ABFF3046B1
:105BD00070BD00BF2416002037B5134C40F63802C4
:105BE00000210125204600F04BFBFF2304F1380182
:105BF000258163714FF442434FF4007204F11000A9
:105C0000E38008232373002300932B46FFF774FEE1
:105C10002B464FF4007204F50E7104F12400009538
:105C2000FFF76AFE03B030BD0016002010B5002358
:105C3000084C236004F1100023712434FFF7F6FEB2
:105C40002046FFF7F3FE20460121BDE81040FFF794
:105C5000F9BE00BF00160020F7B54B790646022BAF
:105C60000CD18B79022B09D1234FBB7853B14FF064
:105C7000E023D3F8F03DDB0700D500BE0025284621
:105C800003B0F0BD8B7809253B700B78CC18637896
:105C9000242B21D195421AD96378042B13D163792F
:105CA0000A2B10D1154B3046277801930133E119A7
:105CB000009302231A46FEF797FC0028D7D00E3532
:105CC00017FA85F5ADB20C48FFF7D1FED7E7237878
:105CD0001D441C44ADB2DAE7052BDDD12146304628
:105CE000FEF760FC0028C2D0A3787B7023781D44A7
:105CF0001C44ADB2D0E700BF001600200216002001
:105D00000B46114670B5127802F06002202A47D186
:105D1000244E8A883478944242D14A78203A032A21
:105D20003ED8DFE802F002141731012B05D107231A
:105D30001D4AFFF72BF8012070BD032BFBD11B4B35
:105D4000002BF8D018490020AFF30080F3E7012BB7
:105D5000F1D1ECE7012B02D1FFF706F8EBE7032BBB
:105D6000E9D14C88124804F00105347185F0010135
:105D7000FFF768FE0F4B002BDDD0C4F3400229462D
:105D80000020AFF30080D6E7012BE5D0032BD2D162
:105D9000094B002BCFD049880020AFF30080CAE721
:105DA0000020C9E7001600200616002000000000B1
:105DB0002416002000000000000000002DE9F0473C
:105DC000354C1D4607460E46E3788B4212D1AAB2E7
:105DD00004F5876104F11000FFF722FE2F4BB3B9E1
:105DE0002F4B73BB2C48FFF742FEA378B34230D051
:105DF00001200AE0A3788B42F7D04FF0E023D3F8DC
:105E0000F03DDB0700D500BE0020BDE8F0876379D8
:105E1000FF2BE5D004F237494FF0000804F1100AD7
:105E2000A845DDD0627919F8013F9A4206D1504663
:105E3000FFF78AFD10B96179AFF3008008F101081E
:105E4000EEE71848FFF780FD0028CBD1AFF30080C4
:105E5000C8E7154B13B10020AFF300800020FFF717
:105E600061FE0028C4D11148FFF75CFD0028BFD1B6
:105E7000002DBDD0C5F30805002DB9D1A178384655
:105E8000FEF7E0FB0028B3D02B462A46A17838461F
:105E9000FEF7F4FBACE700BF001600200000000096
:105EA0000000000010160020000000002416002052
:105EB0002DE9F04786468C460846089E15467446EE
:105EC0001946002B40F0C2808542B2FA82F245D9D1
:105ED0004AB1C2F1200300FA02FC2EFA03F3954006
:105EE00043EA0C0C94404FEA154EA8B2BCFBFEF8F6
:105EF000230C0EFB18CC08FB00F943EA0C43994530
:105F000028D9EB1808F1FF3704D2994502D9A8F136
:105F100002072B44A3EB0903A4B2B3FBFEFC0EFB68
:105F20001C330CFB00F044EA0344A04214D92C19A2
:105F30000CF1FF3304D2A04202D9ACF102032C448D
:105F4000241A43EA07401EB1D44000233460736032
:105F5000BDE8F0874746DDE76346F1E792BB431BA8
:105F600001214FEA154EAFB2B3FBFEFC200C0EFB35
:105F70001C330CFB07F840EA0343984562D9EB1841
:105F80000CF1FF3004D2984502D9ACF102002B4449
:105F9000A3EB0803A4B2B3FBFEFC0EFB1C330CFB0B
:105FA00007F744EA0344A7424ED92C190CF1FF33FA
:105FB00004D2A74202D9ACF102032C44E41B43EA09
:105FC0000040C0E7C2F1200320FA03F19540904061
:105FD0002EFA03F303434FEA154EAFB2B1FBFEFCBA
:105FE0000EFB1C10190C0CFB07F841EA0041884518
:105FF00004FA02F422D969180CF1FF3004D2884562
:1060000002D9ACF102002944A1EB08019BB2B1FB1B
:10601000FEFC0EFB1C110CFB07F743EA01439F42F9
:106020000ED9EB180CF1FF3104D29F4202D9ACF12A
:1060300002012B44DB1B41EA004192E76046E3E7A3
:106040006146F7E76046A3E76346B7E7834206D9B0
:1060500016B9002108467BE7C6E900E0F9E7B3FA84
:1060600083F78FB9834201D3724508D8BEEB02048F
:1060700060EB030301209C461EB9002168E7384607
:10608000FAE7C6E9004CF8E7C7F1200CBB4022FA5A
:106090000CF41C432EFA0CF120FA0CF3B840014327
:1060A0004FEA14490EFA07F5B3FBF9F81FFA84FE1C
:1060B00009FB18300B0C08FB0EFA43EA00439A4523
:1060C00002FA07F240D9E31808F1FF3004D29A45EA
:1060D00002D9A8F102002344A3EB0A0389B2B3FB5F
:1060E000F9F809FB183308FB0EFE41EA03418E451F
:1060F0002CD9611808F1FF3304D28E4502D9A8F1DA
:106100000203214443EA0040A0FB0298A1EB0E01E8
:106110004145CE46434602D306D14D4504D2B9EBA4
:10612000020E68EB04030138002EA6D0B5EB0E0278
:1061300061EB030101FA0CFC22FA07F34CEA0303BA
:10614000F940C6E9003198E74046C5E74346D9E73C
:106150001FB514461A46094B1B680546D8684CB152
:10616000074B0091CDE9013406492B4600F03CF87D
:1061700000F09EFB044B1C46F3E700BF38000020F4
:106180008C83006099830060FE75006000230146E7
:106190001A46184600F094BB08B5074B044613B1E5
:1061A000002100F0EFFB054B1868836A03B19847A4
:1061B000204601F03FF900BF85690060C883006098
:1061C00038B5074D074C641BA4101CB9BDE8384016
:1061D00002F04EB9013C55F824309847F5E700BF6E
:1061E000888400608C8400600EB403B5014603AB64
:1061F000054853F8042B0068019300F053F902B0EE
:106200005DF804EB03B070473800002070B50D4D09
:106210000D4C641BA4100026A64209D10B4D0C4C5A
:1062200002F020F9641BA4100026A64205D170BD1F
:1062300055F8043B98470136EEE755F8043B98477C
:106240000136F2E784840060848400608484006006
:1062500088840060024B0146186800F085B800BFD2
:10626000380000200A44914200F1FF3300D170470A
:1062700010B511F8014B03F8014F9142F9D110BD4F
:1062800002440346934200D1704703F8011BF9E72B
:1062900037B5002944D051F8043C0190002BA1F1FE
:1062A0000404B8BFE41800F0EBFD1E4A019813681F
:1062B00033B96360146003B0BDE8304000F0E6BD60
:1062C000A34208D9256861198B4201BF19685B6830
:1062D00049192160EDE71A465B680BB1A342FAD970
:1062E00011685518A5420BD1246821445418A342C3
:1062F0001160E0D11C685B6853600C441460DAE7FD
:1063000002D90C230360D6E7256861198B4204BFCC
:1063100019685B68636004BF491921605460CAE76B
:1063200003B030BD381E002070B50E4E0C463168EB
:10633000054611B900F0E4F930602146284600F026
:10634000DFF9431C0AD0C41C24F00304A04207D088
:10635000211A284600F0D4F9013001D14FF0FF3462
:10636000204670BD3C1E00202DE9F041CD1C25F0DB
:10637000030508350C2D38BF0C25002D074601DB21
:10638000A94205D90C233B6000263046BDE8F081C8
:106390002E4E00F075FD33681C4634BB2946384646
:1063A000FFF7C2FF431C04464DD134682646002E39
:1063B00040D123683146384604EB030800F0A0F9C9
:1063C00080453AD123680335ED1A25F003050835D9
:1063D0000C2D38BF0C2529463846FFF7A5FF0130A4
:1063E0002BD023682B4423600EE02268521B1ED45E
:1063F0000B2A16D96119A342256018BF596063683A
:1064000008BF316062514B60384604F10B0600F062
:106410003DFD26F00706231DF21AB6D09B1BA350A4
:10642000B3E76268A3420CBF32605A60ECE72346D0
:106430006468B2E734467668B9E70C233B603846B7
:1064400000F024FDA1E72560DEE700BF381E002034
:106450009368013B002B10B4936008DA9469A3425F
:1064600001DB0A2903D15DF8044B00F061B9136820
:10647000581C1060197008465DF8044B7047F8B559
:1064800006460F461446D518AC4201D1002007E05D
:1064900014F8011B3A463046FFF7DAFF431CF3D1EC
:1064A000F8BD00002DE9F04F0D469DB0144698460A
:1064B000064618B183690BB900F0DAFB884B9D42A0
:1064C0001BD175686B6ED90705D4AB899A0502D4C8
:1064D000A86D00F06BFCAB891B0701D52B69EBB9EC
:1064E0002946304600F076F9C0B16B6EDC070ED558
:1064F0004FF0FF301DB0BDE8F08F7A4B9D4201D1C7
:10650000B568DFE7784B9D4208BFF568DAE7AB89ED
:106510009805EDD4A86D00F04BFCE9E70023099342
:1065200020238DF82930CDF80C803023DFF8BC8192
:106530008DF82A304FF0010923469A4613F8012BB3
:106540000AB1252AF9D1BAEB040B0BD05B462246DF
:1065500029463046FFF793FF013000F0A980099AE1
:106560005A4409929AF80030002B00F0A1800023D1
:106570004FF0FF32CDE905230AF1010A0493079396
:106580008DF853301A935446052214F8011B5748CE
:10659000FCF79EF8049AD8B9D10644BF20238DF8A1
:1065A0005330130744BF2B238DF853309AF8003033
:1065B0002A2B15D0079A544600204FF00A0C21468A
:1065C00011F8013B303B092B4DD9B0B1079214E0D3
:1065D000A0EB080309FA03F313430493A246D2E79E
:1065E000039B191D1B680391002BBBBF5B4242F04C
:1065F000020207930793B8BF049223782E2B0CD185
:1066000063782A2B34D1039B1A1D1B680392002B3D
:10661000B8BF4FF0FF3302340593DFF8E0A02178D4
:1066200003225046FCF754F838B1049BA0EB0A0053
:106630004022824013430134049314F8011B2C4878
:106640008DF828100622FCF743F800283FD0294B8C
:106650001BBB039B073323F0070308330393099BFA
:106660003B44099368E70CFB02320C460120A6E785
:1066700000230134059319464FF00A0C204610F808
:10668000012B303A092A03D9002BC6D00591C4E763
:106690000CFB012104460123F0E703AB00932A46DB
:1066A000154B04A93046AFF300800746781CD6D1BD
:1066B0006B6ED90705D4AB899A0502D4A86D00F09A
:1066C00077FBAB895B063FF513AF099812E703AB85
:1066D00000932A46084B04A9304600F04BFCE4E73F
:1066E0000084006020840060E0830060CC83006050
:1066F000D6830060000000007F640060D2830060E9
:1067000038B5064D0023044608462B6000F07CFE99
:10671000431C02D12B6803B1236038BDD41E002076
:10672000034611F8012B03F8012B002AF9D1704719
:10673000F8B50E461446054618B183690BB900F04A
:1067400097FA214B9C422BD16C68A369A360A38963
:106750001A072FD523696BB323692068C01A6369B0
:10676000F6B28342374604DC2146284600F0ECF9B5
:1067700030BBA368013BA36023685A1C22601E70D3
:1067800063690130834204D0A389DB0706D50A2E52
:1067900004D12146284600F0D7F988B93846F8BD1B
:1067A0000A4B9C4201D1AC68CFE7094B9C4208BF21
:1067B000EC68CAE72146284600F00CF80028CBD048
:1067C0004FF0FF37EAE700BF0084006020840060DC
:1067D000E0830060324B70B51D6806460C4625B15B
:1067E000AB6913B9284600F043FA2E4B9C420FD1F7
:1067F0006C68A389B4F90C2019072CD4DD0611D4D8
:106800000923336042F04003A3814FF0FF303EE0A4
:10681000254B9C4201D1AC68EBE7244B9C4208BF5E
:10682000EC68E6E7580712D5616B41B104F1440307
:10683000994202D03046FFF72BFD00236363A38902
:1068400023F02403A3810023636023692360A389C9
:1068500043F00803A38123694BB9A38903F4207390
:10686000B3F5007F03D02146304600F0C9FAA08975
:10687000B4F90C2010F001030AD00023A36063696F
:106880005B42A361236943B910F08000BAD170BDA7
:10689000810758BF6369A360F4E70020F7E700BFF2
:1068A000380000200084006020840060E0830060E5
:1068B00008B5062000F0A8FC012000F0BBFD000098
:1068C0002DE9F843DFF8B8800646D8F800001F46E7
:1068D0000D46914600F06AFA254B1C6834B9254CE8
:1068E0001C60254B13B11B68C4F8883063681F2BEC
:1068F00007DDD8F8000000F05BFA4FF0FF30BDE88C
:10690000F8834EB3D4F8880088B91C4B23B9D8F863
:10691000000000F04CFAF0E74FF48470FFF79AFCA7
:106920000028F4D00023C0E94033C4F8880063682D
:1069300040F8239001229A4000EB8301D0F8003107
:106940001343C0F80031022EC1F8807002BFD0F8A6
:1069500004311343C0F804316368D8F800005A1CAE
:106960000233626044F8235000F022FA0020C6E7A8
:10697000CC1E0020401E0020000000005562006078
:106980009C0000202DE9F74FDFF8A8900091804689
:10699000D9F80000DFF8A0A000F008FADAF800400B
:1069A00034B9D9F8000003B0BDE8F04F00F000BAE8
:1069B0006568D4F888706E1E013504EB850507F113
:1069C000800B002EEDDB009B43B117B9013E043D67
:1069D000F7E75BF82620009B9A42F7D161682A68A6
:1069E0000139B14216BF002366602B60002AEDD04A
:1069F000636801933FB1D7F80011012303FA06FC45
:106A00001CEA010F09D190476168019BDAF8002068
:106A10009942C3D19442D9D0C0E7D7F8040157F8BE
:106A200026101CEA000F02D140469047ECE70846CA
:106A30009047E9E79C000020CC1E00208A892DE9C0
:106A4000F041054610070C4658D44B68002B05DC76
:106A50000B6C002B02DC0020BDE8F081E66A002E02
:106A6000F9D0002312F480522F68216A2B6032D0B3
:106A7000606DA3895A0705D56368C01A636B0BB1B3
:106A8000236CC01A00230246E66A216A2846B047F2
:106A9000431CA38906D129681D292BD8294A0A41FC
:106AA000D60727D400226260D9042269226004D567
:106AB000421C01D12B6803B96065616B2F6000290E
:106AC000C9D004F14403994202D02846FFF7E0FB05
:106AD00000206063C0E701232846B047411CC8D1AD
:106AE0002B68002BC5D01D2B01D0162B01D12F6098
:106AF000B1E7A38943F04003A381ADE70F69002FFD
:106B0000A9D093070E6808BF4B690F6018BF002318
:106B1000A6EB07088B60B8F1000F9CDD216AA66A1E
:106B200043463A462846B047002806DCA38943F08E
:106B30004003A3814FF0FF308EE70744A8EB000825
:106B4000E9E700BFFEFFBFDF38B50B6905460C461D
:106B500013B90025284638BD18B183690BB900F078
:106B600087F8144B9C421BD16C68B4F90C30002B95
:106B7000EFD0626ED00704D4990502D4A06D00F066
:106B800015F928462146FFF759FF636EDA070546D7
:106B9000E0D4A3899B05DDD4A06D00F009F9D9E705
:106BA000054B9C4201D1AC68DFE7044B9C4208BF17
:106BB000EC68DAE70084006020840060E083006015
:106BC000002310B50446C0E90033C0E904338360F4
:106BD00081814366C2818361194608225C30FFF7D8
:106BE0004FFB054B6362054BA362054BE362054B0C
:106BF0002462236310BD00BF4172006063720060B5
:106C00009B720060BF720060014900F0AFB800BF26
:106C1000496B006070B568234D1E5D430E4605F15B
:106C20007401FFF7A1FB044640B10021C0E9001642
:106C30000C30A06005F16802FFF722FB204670BD12
:106C4000014800F0B3B800BFD21E0020014800F098
:106C5000AFB800BFD21E0020014800F0A7B800BFA7
:106C6000D31E0020014800F0A3B800BFD31E0020AF
:106C700010B50446FFF7F0FFA3691BB1BDE8104053
:106C8000FFF7F0BFC4E912332365134B134A1B68A7
:106C9000A262A34204BF0123A361204600F020F8B2
:106CA0006060204600F01CF8A060204600F018F854
:106CB0000022E06004216068FFF782FFA0680122E3
:106CC0000921FFF77DFFE06802221221FFF778FF1C
:106CD0000123A361D2E700BFC8830060096C006094
:106CE000F8B50746FFF7ACFF1E4B1E68B36913B932
:106CF0003046FFF7BDFF4836D6E90134013B03D5E6
:106D000033680BB33668F7E7B4F90C50D5B9164BB6
:106D1000E36004F15800656600F047F8FFF796FF5E
:106D2000C4E90155C4E904552560A5610822294636
:106D300004F15C00FFF7A4FAC4E90D55C4E912554B
:106D40002046F8BD6834D9E704213846FFF762FFD2
:106D5000044630600028D5D1FFF778FF0C233B6054
:106D6000EEE700BFC88300600100FFFF2DE9F84394
:106D70000646884600F148040027D4E90195B9F198
:106D8000010905D52468002CF7D13846BDE8F88301
:106D9000AB89012B07D9B5F90E30013303D0294651
:106DA0003046C04707436835E9E77047704770478A
:106DB000704770B50C46B1F90E10002996B0154613
:106DC0001E460DDAA38913F0800F4FF000010CBFAF
:106DD0004FF480634023002031602B6016B070BDFB
:106DE0006A4600F093FA0028ECDB019901F4704147
:106DF000A1F50053594259414FF48063EBE700007D
:106E00008B8973B59D0706460C4607D504F14703E9
:106E1000236023610123636102B070BD01AB6A4648
:106E2000FFF7C7FF009905463046FFF79DFA48B9BE
:106E3000B4F90C309A05EFD423F0030343F00203B6
:106E4000A381E3E70D4BB362A389206043F0800385
:106E5000A381009B6361019B20615BB1B4F90E10BB
:106E6000304600F065FA28B1A38923F0030343F00C
:106E70000103A381A3891D43A581CDE7096C0060AF
:106E80000148FFF793BF00BFD11E00200148FFF764
:106E90008FBF00BFD11E00202DE9F047164699464E
:106EA0008A680B69DDF820809342B8BF13463360CF
:106EB00091F8432007460C460AB10133336023683A
:106EC000990642BF336802333360256815F0060522
:106ED00006D104F1190AE36832689B1AAB4226DC3A
:106EE00094F84320131E226818BF012392062BD466
:106EF00004F1430249463846C04701301ED023689A
:106F0000226903F00603042B02BFE5683368ED1A1B
:106F1000A3680CBF25EAE57500259342C4BF9B1A00
:106F2000ED1800261A34B5421AD1002008E00123DA
:106F3000524649463846C047013003D14FF0FF3032
:106F4000BDE8F0870135C6E7E1185A1C302081F80A
:106F50004300224494F8451082F843100233C7E7F7
:106F60000123224649463846C0470130E6D0013663
:106F7000D9E700002DE9FF470F7E0C9D782F914641
:106F800080460C469A4601F1430207D8622F0AD880
:106F9000002F00F0D480582F00F0C08004F142058B
:106FA00084F842703AE0A7F16303152BF6D801A1EB
:106FB00051F823F00D700060217000609D6F00603B
:106FC0009D6F00609D6F00609D6F0060217000608C
:106FD0009D6F00609D6F00609D6F00609D6F006001
:106FE000257100604D700060DF7000609D6F006073
:106FF0009D6F0060477100609D6F00604D70006084
:107000009D6F00609D6F0060E77000602B681A1D27
:107010001B682A6004F1420584F8423001239FE096
:1070200020682B68070603F10401296001D51E685A
:1070300003E04606FBD5B3F90060002E03DA2D23EA
:10704000764284F843305A480A2312E02B682068BD
:10705000191D2960050601D51E6802E04106FBD511
:107060001E8853486F2F0CBF08230A23002184F881
:1070700043106568A560002DA2BF216821F00401BE
:1070800021600EB9002D4BD01546B6FBF3F103FB82
:107090001167C75D05F8017D3746BB420E46F4D93E
:1070A000082B0BD12368DE0708D523696168994254
:1070B000DEBF302305F8013C05F1FF35521B22618C
:1070C000CDF800A04B4603AA21464046FFF7E4FE58
:1070D00001304AD14FF0FF3004B0BDE8F08723689B
:1070E00043F0200323603348782784F845702368F1
:1070F00029681F0651F8046B02D45F0648BFB6B278
:10710000DF0748BF43F02003296048BF23601EB952
:10711000236823F0200323601023A7E72448E4E733
:107120001546BDE72B6826686169181D286035067D
:107130001B6801D5196002E07006FBD51980002399
:1071400023611546BCE72B681A1D2A601D6862681A
:1071500000212846FBF7BCFA08B1401B6060636859
:107160002361002384F84330AAE723692A4649466D
:107170004046D0470130ADD023689B0713D4E06868
:10718000039B9842B8BF1846A6E7012332464946FA
:107190004046D04701309DD00135E36803995B1A22
:1071A000AB42F2DCEBE7002504F11906F5E700BF7E
:1071B00040840060518400601F2938B504460D46A4
:1071C00004D9162303604FF0FF3038BD426C12B172
:1071D00052F821304BB9204600F030F82A460146DB
:1071E0002046BDE8384000F017B8012B0AD0591CE2
:1071F00003D1162303600120E7E7002442F825406D
:10720000284698470020E0E7024B01461868FFF740
:10721000D3BF00BF3800002038B5074D0023044617
:10722000084611462B6000F0D7F8431C02D12B68AA
:1072300003B1236038BD00BFD41E002000F0BCB8ED
:1072400010B50C46B1F90E1000F094F80028ABBF51
:10725000636DA3891B1823F48053ACBF6365A381BE
:1072600010BD2DE9F0411F468B89DB0505460C4614
:10727000164605D5B1F90E100223002200F068F879
:10728000A389B4F90E1023F48053A38132463B4600
:107290002846BDE8F04100F017B810B50C46B1F92A
:1072A0000E1000F055F8431CA38915BF606523F448
:1072B000805343F48053A38118BFA38110BDB1F95B
:1072C0000E1000F013B8000038B5074D044608460C
:1072D000114600222A601A4600F0A4F8431C02D18D
:1072E0002B6803B1236038BDD41E002038B5064D8D
:1072F0000023044608462B6000F04EF8431C02D1E0
:107300002B6803B1236038BDD41E002038B5074D6B
:1073100000230446084611462B6000F045F8431C44
:1073200002D12B6803B1236038BD00BFD41E0020FA
:1073300038B5064D0023044608462B6000F044F89B
:10734000431C02D12B6803B1236038BDD41E00203A
:1073500038B5074D04460846114600222A601A46F1
:1073600000F042F8431C02D12B6803B1236038BD02
:10737000D41E002038B5074D0446084611460022A9
:107380002A601A4600F038F8431C02D12B6803B17A
:10739000236038BDD41E0020024B58221A604FF0E3
:1073A000FF307047D41E0020024B58221A604FF065
:1073B000FF307047D41E0020024B58221A604FF055
:1073C000FF307047D41E0020024B58221A60002064
:1073D000704700BFD41E0020024B58221A604FF0A5
:1073E000FF307047D41E0020024B58221A604FF025
:1073F000FF307047D41E0020024B58221A604FF015
:10740000FF307047D41E0020044A05491368002B42
:1074100008BF0B461844106018467047D81E00205D
:10742000E01E0020024B58221A604FF0FF307047D8
:10743000D41E0020FEE700BF01010062757379537E
:1074400068696674203C3D2043434D5F4E4F5F4268
:107450005553595F5741495400736F757263652FD7
:107460004D494D5852543130363244564A36412FE8
:1074700066736C5F636C6F636B2E6800434C4F43A5
:107480004B5F5365744D757800434C4F434B5F53CE
:1074900065744469760001010100010001000000EB
:1074A00000000000010000000000000000000000DB
:1074B00064000000000000008025000000000000C3
:1074C00000010000000000000101000043616E4364
:1074D00061740D0A0043414E540D0A00536F636BF3
:1074E000657443414E0D0A00547275636B446576B2
:1074F000696C0D0A005357350D0A005357360D0AB3
:10750000005357370D0A005357380D0A005445539E
:10751000540D0A00537461727420546573743F20D3
:1075200028592F6E290D0A00546573742053746115
:10753000727465640D0A0054657374696E67204C3B
:107540004544530D0A005475726E696E672050579A
:1075500052204C4544206F6E0D0A00505752204C6B
:1075600045442073686F756C64206265206F6E2ED1
:1075700020507265737320456E74657220746F209D
:10758000436F6E74696E7565005475726E696E67CF
:1075900020505752204C4544206F66660D0A0D0A54
:1075A000005475726E696E672043414E31204C4520
:1075B00044206F6E0D0A0043414E31204C4544205B
:1075C00073686F756C64206265206F6E2E20507238
:1075D00065737320456E74657220746F20436F6EFF
:1075E00074696E7565005475726E696E67204341EB
:1075F0004E31204C4544206F66660D0A0D0A00543A
:1076000075726E696E672043414E32204C454420AE
:107610006F6E0D0A0043414E32204C454420736882
:107620006F756C64206265206F6E2E2050726573DA
:107630007320456E74657220746F20436F6E746999
:107640006E7565005475726E696E672043414E32E7
:10765000204C4544206F66660D0A0D0A0054757271
:107660006E696E672043414E33204C4544206F6E57
:107670000D0A0043414E33204C45442073686F751A
:107680006C64206265206F6E2E20507265737320CB
:10769000456E74657220746F20436F6E74696E75E9
:1076A00065005475726E696E672043414E33204CFD
:1076B0004544206F66660D0A0D0A005465737469AF
:1076C0006E672043414E542053686F7274696E6731
:1076D00020537769746368657320616E64207465F4
:1076E000726D696E6174696F6E207265736973740F
:1076F0006F72730D0A0054657374696E672043419D
:107700004E312073686F7274696E67207377697485
:1077100063682E20436865636B20726573697374B8
:10772000616E6365206265747765656E2043414EC6
:10773000312B20616E642043414E312D2E20526545
:1077400073697374616E63652073686F756C642010
:107750006265206265747765656E203620616E64AF
:107760002038206F686D732E20507265737320452A
:107770006E74657220746F20436F6E74696E650D50
:107780000A0053686F7274696E6720737769746357
:1077900068206F66662E20436865636B2072657390
:1077A000697374616E6365206265747765656E20C8
:1077B00043414E312B20616E642043414E312D2ECA
:1077C00020526573697374616E63652073686F75A9
:1077D0006C6420626520617070726F63696D6174A2
:1077E000656C7920313230206F686D7320696620B6
:1077F000746865207465726D696E6174696F6E205E
:107800007265736973746F72206A756D706572202A
:107810006973206F6E2C20616E64207365766572CB
:10782000616C206D6567614F686D732069662074B7
:107830006865206A756D706572206973206F666671
:107840002E20507265737320456E74657220746FBC
:1078500020436F6E74696E650D0A00546573746918
:107860006E672043414E322073686F7274696E6791
:10787000207377697463682E20436865636B207298
:107880006573697374616E6365206265747765659D
:107890006E2043414E322B20616E642043414E32B4
:1078A0002D2E20526573697374616E636520736851
