:0200000460009A
:10000000464346420004015600000000010303007D
:1000100000000000000000000000000000000000E0
:1000200000000000000000000000000000000000D0
:1000300000000000000000000000000000000000C0
:1000400000000000000406000000000000000000A6
:100050000000800000000000000000000000000020
:100060000000000000000000000000000000000090
:100070000000000000000000000000000000000080
:10008000EB04180A063204260000000000000000FD
:100090000000000000000000000000000000000060
:1000A0000000000000000000000000000000000050
:1000B0000000000000000000000000000000000040
:1000C0000000000000000000000000000000000030
:1000D0000000000000000000000000000000000020
:1000E0000000000000000000000000000000000010
:1000F0000000000000000000000000000000000000
:1001000000000000000000000000000000000000EF
:1001100000000000000000000000000000000000DF
:1001200000000000000000000000000000000000CF
:1001300000000000000000000000000000000000BF
:1001400000000000000000000000000000000000AF
:10015000000000000000000000000000000000009F
:10016000000000000000000000000000000000008F
:10017000000000000000000000000000000000007F
:10018000000000000000000000000000000000006F
:10019000000000000000000000000000000000005F
:1001A000000000000000000000000000000000004F
:1001B000000000000000000000000000000000003F
:1001C000000100000010000000000000000000001E
:1001D000000004000000000000000000000000001B
:1001E000000000000000000000000000000000000F
:1001F00000000000000000000000000000000000FF
:10100000D10020410020006000000000000000002E
:1010100020100060001000600000000000000000D0
:10102000000000600000800000000000FFFFFFFFE4
:102000000000022071240060BD240060C124006033
:10201000B9240060B9240060B92400600000000009
:10202000000000000000000000000000C524006067
:10203000B924006000000000C9240060CD240060C5
:10204000D1240060D5240060D9240060DD24006024
:10205000E1240060E5240060E9240060ED240060D4
:10206000F1240060F5240060F9240060FD24006084
:102070000125006005250060092500600D25006030
:1020800011250060B9240060B9240060B924006003
:1020900015250060192500601D25006021250060C0
:1020A00025250060292500602D2500603125006070
:1020B00035250060392500603D2500604125006020
:1020C00045250060492500604D25006051250060D0
:1020D0005525006059250060B9240060B9240060CE
:1020E000B9240060B9240060B9240060B9240060FC
:1020F000B9240060B9240060B9240060B9240060EC
:10210000B9240060B9240060B9240060B9240060DB
:10211000B9240060B9240060B9240060B9240060CB
:102120005D2500606125006065250060692500600F
:102130006D250060B9240060B9240060B9240060F6
:10214000B9240060B9240060B9240060B92400609B
:10215000B9240060B9240060B9240060B92400608B
:10216000B9240060B9240060B9240060B92400607B
:10217000B9240060B9240060B9240060B92400606B
:10218000B9240060B9240060B9240060B92400605B
:10219000B9240060B9240060B9240060B92400604B
:1021A000B9240060B92400607125006075250060C5
:1021B000B9240060B9240060B9240060B92400602B
:1021C000B9240060B9240060B9240060B92400601B
:1021D000B9240060B9240060B9240060B92400600B
:1021E000B9240060B9240060B9240060792500603A
:1021F0007D250060B9240060812500608525006090
:10220000B9240060B9240060892500608D25006034
:10221000B9240060B9240060B9240060B9240060CA
:10222000B9240060B9240060B9240060B9240060BA
:10223000B9240060B9240060B9240060B9240060AA
:10224000B9240060B9240060B9240060B92400609A
:10225000B9240060B9240060B9240060B92400608A
:10226000B9240060B9240060B9240060B92400607A
:10227000B9240060B9240060B9240060B92400606A
:10228000B9240060B9240060B9240060B92400605A
:10229000B9240060B9240060B9240060B92400604A
:1022A000912500609525006099250060B9240060A3
:1022B0009D250060B9240060B9240060B924006045
:1022C000B9240060B9240060B9240060B92400601A
:1022D000B9240060B9240060B9240060B92400600A
:1022E000B9240060B9240060B9240060B9240060FA
:1022F000B9240060B9240060B9240060B9240060EA
:10230000B9240060B9240060B9240060B9240060D9
:10231000B9240060B9240060B9240060B9240060C9
:10232000B9240060B9240060B9240060B9240060B9
:10233000B9240060B9240060B9240060B9240060A9
:10234000B9240060B9240060B9240060B924006099
:10235000B9240060B9240060B9240060B924006089
:10236000B9240060B9240060B9240060B924006079
:10237000B9240060B9240060B9240060B924006069
:10238000B9240060B9240060B9240060B924006059
:10239000B9240060B9240060B9240060B924006049
:1023A000B9240060B9240060B9240060B924006039
:1023B000B9240060B9240060B9240060B924006029
:1023C000B9240060B9240060B9240060B924006019
:1023D000B9240060B9240060B9240060B924006009
:1023E000B9240060B9240060B9240060B9240060F9
:1023F000B9240060B9240060B9240060FFFFFFFF2A
:10240000A3F5803A704700BF154B002B08BF114B56
:102410009D46FFF7F5FF00218B460F461148124AF3
:10242000121A01F02DFD0C4B002B00D098470B4BDE
:10243000002B00D098470020002104000D000B481D
:1024400001F0B2FC01F0F0FC2000290000F046FE93
:1024500001F0B0FC000008000000000000000000D7
:10246000000002206C00002070010020DD3D0060B3
:1024700072B60A480A4901600A6882F30888094866
:1024800080470949094A0A4B9A42BEBF51F8040BDA
:1024900042F8040BF8E762B60648804708ED00E012
:1024A00000200060693200601055006000000020CC
:1024B0006C00002009240060FFF7FEBF3848004789
:1024C00038480047384800473848004738480047F0
:1024D00038480047384800473848004738480047E0
:1024E00038480047384800473848004738480047D0
:1024F00038480047384800473848004738480047C0
:1025000038480047384800473848004738480047AF
:10251000384800473848004738480047384800479F
:10252000384800473848004738480047384800478F
:10253000384800473848004738480047384800477F
:10254000384800473848004738480047384800476F
:10255000384800473848004738480047384800475F
:10256000384800473848004738480047384800474F
:10257000384800473848004738480047384800473F
:10258000384800473848004738480047384800472F
:10259000384800473848004738480047384800471F
:1025A000BD240060C1240060C5240060C92400600F
:1025B000CD240060B9240060B9240060B924006013
:1025C000B9240060B9240060B9240060B924006017
:1025D000B9240060B9240060B9240060B924006007
:1025E000B9240060B9240060B9240060B9240060F7
:1025F000B9240060B9240060CD390060ED39006075
:102600000D3A00602D3A00604D3A00606D3A00606E
:102610008D3A0060AD3A0060B9240060B9240060D2
:10262000B9240060B9240060B9240060B9240060B6
:10263000B9240060B9240060393500607535006048
:10264000B9240060B9240060B9240060B924006096
:10265000B9240060B9240060B9240060B924006086
:10266000B9240060B9240060B9240060B924006076
:10267000B9240060B9240060B9240060B13500605D
:10268000B924006053B94AB9002908BF00281CBF0B
:102690004FF0FF314FF0FF3000F00CB8ADF1080CF7
:1026A0006DE904CE01F012FADDF804E0DDE9022361
:1026B00004B07047704700BF000000000000000039
:1026C00001F0FF01102A2BDB10F0070F08D010F8E3
:1026D000013B013A8B422DD010F0070F42B3F6D1E7
:1026E000F0B441EA012141EA014122F007047FF000
:1026F00000070023F0E80256083C85EA010586EA57
:10270000010685FA47F5A3FA87F586FA47F6A5FA92
:1027100087F68EB9EED1F0BC01F0FF0102F007029E
:1027200032B110F8013B013A83EA010313B1F8D149
:102730000020704701387047002D06BF354603382A
:10274000073815F0010F07D1013015F4807F02BF63
:10275000013015F4C03F0130F0BC0138704700BFB4
:1027600010B5054C237833B9044B13B10448AFF3CB
:1027700000800123237010BD6C00002000000000C9
:10278000E854006008B5034B1BB103490348AFF39D
:10279000008008BD0000000070000020E8540060C8
:1027A00038B5C3B2C0F30425820EC0F34C3003F138
:1027B0008043A940A840202A03F57C231C6881EAB5
:1027C000040100EA010080EA0400186006D9074B02
:1027D00040F2BC51064A074801F0C8FA05D001236F
:1027E000054993408A6C1A42FCD138BD2B500060D9
:1027F000795000604950006000C00F4038B5C3B246
:10280000C0F30425820EC0F34C3003F18043A9408D
:10281000A840202A03F57C231C6881EA040100EA11
:10282000010080EA0400186006D9074B4FF4B1613B
:10283000064A074801F09AFA05D00123054993405A
:102840008A6C1A42FCD138BD2B5000606C5000607D
:102850004950006000C00F40030A084900F01F0003
:1028600001EB830103238340DB4351E8002F1A402F
:1028700041E800200028F8D1704700BF68C00F4031
:1028800038B54FF40042DC4B00201A60DB4BD3F824
:10289000C02242F48032C3F8C022D3F8C02222F40E
:1028A0000032C3F8C022D64BD64A1A6000F04AFD67
:1028B00000F07AFD012000F06BFDD34A0121D348DE
:1028C000136823F0FF0343F07F031360FFF796FFC5
:1028D0000121CF48FFF792FFCE4AD36823F01F03B0
:1028E00043F01303D3601368002BFCDA0021CA48BD
:1028F000FFF756FF4FF48870FFF7AEFF4FF4847078
:10290000FFF7AAFF40F21620FFF7A6FF4FF406706C
:10291000FFF7A2FF40F20E20FFF79EFF0321BF4802
:102920004FF48035FFF73CFF0121BD48FFF738FF2A
:102930000021BC48FFF734FF4FF48A70FFF78CFF8B
:102940004FF48B70FFF788FF1820FFF785FF1A20E0
:10295000FFF782FF4FF48670FFF77EFF2021B24819
:10296000FFF71EFF40F20260FFF776FF0121AF483C
:10297000FFF716FF0021AE48FFF740FF40F204606A
:10298000FFF76AFF0121AB48FFF70AFF0021AA48C1
:10299000FFF734FF4FF44170FFF75EFF04214FF261
:1029A0001400964CFFF7FCFE0021A448FFF726FF19
:1029B0000021A348FFF722FF40F20270FFF74CFF0F
:1029C0000121A048FFF7ECFE03219F48FFF716FF07
:1029D00040F20220FFF740FF01219C48FFF7E0FE94
:1029E00000219B48FFF70AFF4FF48070FFF734FF88
:1029F0004FF48170FFF730FF4FF48270FFF72CFF28
:102A00004FF48370FFF728FF03219248FFF7C8FEB9
:102A100002219148FFF7F2FE1620FFF71DFF032168
:102A20008E48FFF7BDFE02218D48FFF7E7FE40F21A
:102A30001250FFF711FF03218A48FFF7B1FE012171
:102A40008948FFF7ADFE00218848FFF7D7FE40F226
:102A50001450FFF701FF03218548FFF7A1FE012174
:102A60008448FFF79DFE00218348FFF7C7FE40F230
:102A70001650FFF7F1FE03218048FFF791FE012178
:102A80007F48FFF78DFE00217E48FFF7B7FE40F23A
:102A90000620FFF7E1FE4FF40270FFF7DDFE40F283
:102AA0000A20FFF7D9FE00217748FFF779FE0021C1
:102AB0007648FFF7A3FE0E20FFF7CEFE1220FFF7A9
:102AC000CBFE40F20670FFF7C7FE1020FFF7C4FEF2
:102AD0001420FFF7C1FE4FF4E160FFF7BDFE0021B7
:102AE0006B48FFF75DFE02216A48FFF787FE4FF44F
:102AF000A360FFF7B1FE1C20FFF7AEFE0C20FFF72E
:102B0000ABFE4FF48C70FFF7A7FE40F20230FFF7E8
:102B1000A3FE40F20630FFF79FFE40F21A50FFF787
:102B20009BFE40F20E60FFF797FE00215A48FFF728
:102B300037FE00215948FFF761FE40F20A30FFF7E7
:102B40008BFE01215648FFF72BFE03215548FFF766
:102B500027FE05215448FFF751FE40F20E50FFF7C3
:102B60007BFE01215148FFF71BFE07215048FFF76C
:102B700017FE03214F48FFF741FE40F20250FFF7D6
:102B80006BFE01214C48FFF70BFE07214B48FFF776
:102B900007FE03214A48FFF731FE4FF44070FFF76C
:102BA0005BFE01214748FFF7FBFD07214648FFF781
:102BB000F7FD03214548FFF721FE00214448FFF7B8
:102BC0001DFE444800F0FAFB434800F019FC1B21AD
:102BD000002000F099FC1021012000F095FC182144
:102BE000022000F091FC1021032000F08DFC6563B1
:102BF00000F040FC72E000BF8800002000800D4023
:102C00008C00002000366E0100C00F40186C008060
:102C1000143900140000084014EA0004146800800D
:102C200010E0004014FB00801CE0078024EB0080D3
:102C30001C30008024F000801C31008014270080AC
:102C40001426008018FD0080186800803CEB00808E
:102C50003C69008018FA00801864008024790080A4
:102C6000186E008028E6008028E007801C6A00803B
:102C70002CE600802CE007801C6C008028F6008089
:102C800028F007801C6E008038F3078038320080FF
:102C900020E207802068008024E00780242600804E
:102CA00038EC008018F7008038EF008030F90080A1
:102CB00030F600803074008030EC008030E9008015
:102CC0003067008028E9008028F9008020730080A8
:102CD0000C200080A05000608C5000606567D4F824
:102CE000703123F40043C4F87031D4F8703123F408
:102CF0000003C4F87031236F43F40053236700F0DE
:102D0000C1FBD4F8A03041482B43C4F8A030D4F81C
:102D1000703123F04043C4F87031D4F8A03043F44C
:102D20000053C4F8A03000F0B5FBC4F8E45000F044
:102D30009BFB6562236A0321354843F400532362F9
:102D4000FFF75CFD00213348FFF758FD00213248B2
:102D5000FFF754FD00213148FFF750FDD4F86031F2
:102D600023F01F03C4F860312D4B1A6E22F070025D
:102D70001A661A6E22F00F0242F001021A661A6EEB
:102D800022F460021A661A6E22F4F81242F49012CB
:102D90001A661A6E22F480721A661A6E22F0800287
:102DA0001A661A6E22F080721A66A3F5A0235A687A
:102DB00022F007025A605A6822F038025A605A68B4
:102DC00022F0C0025A605A6822F440725A605A686F
:102DD00022F440625A609A6822F09F6222F4E02254
:102DE0009A605A6822F400325A605A6822F48022AB
:102DF0005A605A6922F080525A615A6922F0005290
:102E00005A61084B084A1A6038BD00BF86500060FE
:102E10001872008014390014186C00801C26008081
:102E200000C00F40000000200046C323FFF728BD6C
:102E3000BFF35F8F104B5A6A22F480325A62D3F884
:102E4000942022F00102C3F89420BFF34F8FBFF308
:102E50006F8F4FF48022A3F540639A604FF40022F5
:102E60009A604FF480029A604FF400029A60034A1D
:102E70000349044800F0B6BC00ED00E000B4C4040F
:102E8000A850006000C01940FFF7D2BFF0B58B4AD0
:102E900091B002F1780353E8003F43F00C0302F1D4
:102EA000780141E80035002DF3D10126844C6A46B3
:102EB0001A2184480327ADF800608DF8025000F015
:102EC000EDFB01AA1B217F48ADF804608DF8065088
:102ED00000F0E4FB02AA29462046ADF808508DF820
:102EE0000A7000F0DBFB636903AA2046022133432A
:102EF0006361ADF80C508DF80E7000F0CFFB636984
:102F00003946204643F0040363616F4B1A889B786F
:102F1000ADF8102004AA8DF8123000F0BFFB05AA0E
:102F200020460A21ADF814508DF8167000F0B6FB5B
:102F3000636906AA20460B2143F480636361ADF800
:102F400018508DF81A7000F0A9FB636907AA204693
:102F50000C2143F400636361ADF81C608DF81E50D2
:102F600000F09CFB08AA20461021ADF820508DF8F7
:102F7000227000F093FB636909AA2046112143F4F3
:102F800080336361ADF824508DF8267000F086FB25
:102F900063690AAA20461E2143F400336361ADF839
:102FA00028608DF82A5000F079FB204604F5004493
:102FB0000BAA1F21ADF82C608DF82E5000F06EFB8F
:102FC0000CAA20460421ADF830608DF8325000F094
:102FD00065FB0DAA20460521ADF834608DF836500A
:102FE00000F05CFB0EAA20460621ADF838508DF8A3
:102FF0003A7000F053FB63690FAA2046082143F0A2
:1030000040036361ADF83C508DF83E7000F046FB24
:1030100063690522022143F4807363612B4BC3F87B
:10302000C450C3F8C850C3F85064C3F81C11C3F8A7
:103030002011C3F84C14C3F82421C3F82821C3F885
:103040003C21C3F84421C3F84821C3F86421C3F8E4
:103050006821C3F86C21C3F87C21C3F88021C3F830
:10306000B421C3F8B8215A629A62DA625A6309221B
:10307000C3F89010C3F85C65C3F89410C3F85865A2
:10308000C3F8A420C3F8A820114AC3F88C57916E46
:1030900021F040619166D06E0E490140D166516FBA
:1030A00021F4B871516741F2F102C3F81823C3F853
:1030B0005C23C3F8142211B0F0BD00BF00C00F4064
:1030C00000C01B4000801B402850006000801F4053
:1030D00000C00A40F2E3FC3FFFF7D8BEF8B50E4E41
:1030E000FFF7A4FE0D4D00F01DF8FFF7F5FFFFF709
:1030F000CBFE00240A4F0134BC4205D1002203213B
:10310000284600F073FAF6E7B442F4D10122032115
:10311000284600F06BFAECE70084D71700C01B408C
:1031200000C2EB0B494AF8B5546914F0007439D069
:10313000936903F44053B3F5805F2FD0B3F5005F7C
:1031400024D06BBBA2F510321169C90316D51269E0
:1031500012F4404F3E4A08BF13463C4A5269C2F33C
:10316000C2620132B3FBF2F4384B3A4A5B69C3F3F3
:1031700082230133B4FBF3F31360F8BD1369364ABD
:1031800013F0020F354B18BF1346E6E7344B1B6BA9
:1031900013F4404F2E4B18BF0023DEE72C4BDCE727
:1031A0000023DAE72E4B1A6812F4803F284A2ED00B
:1031B000196811F4404F14BF002616461A6B1B6B9A
:1031C000D2032AD513F4404F214D18BF0025244FB8
:1031D00000231F48396D3A6EA1FB0001FFF752FA38
:1031E0001A4A2844936903F44023B3F5002F25D0ED
:1031F0001AD843B3B3F5802FB6D1D7F80031C3F353
:103200000543B0FBF3F0122303FB00F4ACE71E68A8
:1032100006F07F0656437608D0E713F0010F0F48FB
:103220000D4D08BF0546D2E7B3F5402F9CD1136979
:1032300003F007030133B6FBF3F495E7D7F8003149
:1032400003F03F03DDE704468EE700BF00C00F40F8
:1032500000366E010000002000A4781F00389C1C7E
:1032600000800D4070470000314A324908B5D2F85D
:10327000883043F47003C2F888300B892E4A23F05B
:1032800001031B041B0C0B81138923F001031B0496
:103290001B0C13810B88580705D50B8823F00403FA
:1032A0001B041B0C0B8013885B0705D5138823F0C8
:1032B00004031B041B0C1380204B1A68900430D5A8
:1032C0001F4A5A604FF6FF729A601A6822F0A002F5
:1032D00042F020021A604FF0E0231A69D10703D5AB
:1032E0001A6922F001021A61114B5A69920315D42E
:1032F0005A6912F4003211D1BFF34F8FBFF36F8FB1
:10330000C3F85022BFF34F8FBFF36F8F5A6942F457
:1033100000325A61BFF34F8FBFF36F8FFFF7A2FFE9
:1033200008BD4CF220525A604DF62812C9E700BF82
:1033300000ED00E000800B4000000D4000C00B409D
:1033400020C528D908B528B10D4BC1210D4A0E481A
:1033500000F00CFD0D4B4FF08042C3F85821D3F81C
:103360007022D103FBD54FF48032C3F85421D3F837
:1033700050211204FBD54FF48032C3F8582108BD08
:10338000BC500060EE500060CB50006000800D40EB
:10339000044B102210B9C3F874227047C3F8782286
:1033A000704700BF00800D40034AD2F8703243F0EE
:1033B0000103C2F87032704700800D400F4A037954
:1033C00011689B0321F4E0319BB20B4343F480333B
:1033D00013601168036821F4415103F07F0321F069
:1033E0003F010B4343F4005313601368002BFCDAD6
:1033F000136823F480331360704700BF00800D40D2
:10340000184B027B196B920321F4E03192B20A430C
:1034100042F480321A63196B027821F4405102F0B1
:10342000010221F001010A4342F400521A6342688A
:1034300022F040421A65826822F040421A66428AAF
:10344000C189C2F30E0242EA0142017CC90389B27A
:103450000A431A641A6B002AFCDA1A6B22F48032CF
:103460001A63704700800D40014B00221A627047BA
:1034700000800D40024B4FF480521A67704700BF26
:1034800000800D40024B4FF48052C3F8A0207047DB
:1034900000800D40437982789B001A4902F00302B4
:1034A00003F00C031343C27810B59203D1F8E04047
:1034B00092B224F4E034224342F48032C1F8E02096
:1034C00002780AB143F4005302790AB143F480133D
:1034D00042780AB143F40013D1F8E02022F480527C
:1034E00022F00F021A43074BC1F8E020D3F8E02086
:1034F000002AFBDAD3F8E02022F48032C3F8E0207F
:1035000010BD00BF00800D4010B5C000094CBF23A6
:1035100001F03F01D4F800218340814022EA0302F8
:103520008023834011431343C4F80031C4F80011D1
:1035300010BD00BF00800D4008B5084B596831B977
:10354000074B41F2AD11074A074800F00FFC074B4B
:1035500007481B689847BFF34F8F08BD94000020B1
:1035600044510060C15100601F5100609000002074
:1035700000001D4008B5084B996831B9074B41F26E
:10358000B811074A074800F0F1FB074B07481B68D2
:103590009847BFF34F8F08BD940000205F51006033
:1035A000AB5100601F5100609000002000401D40A2
:1035B00008B5084BD96831B9074B41F2C311074A26
:1035C000074800F0D3FB074B07481B689847BFF339
:1035D0004F8F08BD940000207A5100609551006023
:1035E0001F5100609000002000801D401F2908B579
:1035F00005D9084B7521084A084800F0B7FB01239C
:1036000003FA01F112B9C0F8881008BDC0F884109F
:10361000FBE700BFD751006033520060E15100600A
:1036200030B50124C3690F2902F1FF3204FA01F415
:1036300088BF103923EA0403C36194BF00F10C036F
:1036400000F11003042A0BD8DFE802F0030B151D6C
:103650002300480003211A68814022EA01021A600F
:1036600030BD4C0003201A680121A04022EA00026C
:10367000A1400A43F3E74C0003201A680221A0404E
:1036800022EA0002F4E74900032218688A40024354
:10369000E5E7C3691C43C461E2E70000F8B51746DB
:1036A00004460E46254A002352F8041B8C4208D0DB
:1036B00001330B2BF8D1224B3C21224A224800F047
:1036C00055FB052B12D901256269B54022EA050296
:1036D000EB4362613A7842BB626813406360BA7838
:1036E00031462046BDE8F840FFF79ABF174A32F945
:1036F00013305A1CE7D0B3F5006F4FEA132103F0E3
:103700001F0005D3124B40F2DE51124A1248D6E791
:10371000124A02EB81020321814052E8003F0B4331
:1037200042E800300028F8D1CDE77A7831462046CB
:10373000FFF75CFF63681D436560D0E7705200606F
:103740000352006053520060E15100606452006017
:1037500026520060415200604950006068C00F402E
:10376000B0F5006F4FEA102200F01F0310B506D32A
:103770000B4B40F2DE510B4A0B4800F0F7FA0B48B6
:10378000994000EB820003229A40D24350E8003F68
:1037900013400B4340E80034002CF7D110BD00BFAC
:1037A00026520060A95300604950006068C00F4075
:1037B00008B5084A0346002052F8041B994208D075
:1037C00001300928F8D1044B7B21044A044800F059
:1037D000CDFA08BDEC530060CD520060C7530060C5
:1037E000A95200602DE9F04704460D4629B96E4BF9
:1037F000F2216E4A6E4800F0B9FA0B681BB96D4BA6
:10380000F3216A4AF6E7097A032903D96A4BF521BD
:10381000664AEFE7697A032900F2B7804FF00A0998
:1038200000264FEA83089E4609FB02FA4FF0040C7B
:103830003746BAFBF8F105319844B1FBF9F189B28A
:10384000012938BF01210CFB01F0B2FBF0F08342EB
:1038500034BFC01A181A704598BF5FFA8CF60CF185
:10386000010C9CBF86460F46BCF1210FE1D16422BA
:10387000B3FBF2F303EB43037345C0F092802046A1
:10388000C7F30C07FFF794FF4C4B032133F91000EB
:10389000FFF766FFA368321F013E43F00203032ACD
:1038A0004FEA0666A360A36806F0F85623F0020309
:1038B000A360236998BF43F4003323F01F2323F050
:1038C000FF0333431F432761236923F00053236120
:1038D000A369EA7B23F4E2632979120223F0070348
:1038E00002F4E0620B431A43AB7B9B0003F004033A
:1038F00013436A79012A4FD100294AD023F4006387
:10390000A361EB7922695B0322F4005203F40053B4
:10391000134323616A7A2B7A43EA0243E362A36A80
:1039200043F08803A362A36A43F44043A3626B7B22
:103930002A7B1B01616A520103F0100302F020028E
:1039400013430B436362AB7A1BB1636A43F0080312
:103950006362EB7A1BB1636A43F001036362A97986
:10396000174B184A002918BF1A466369134363614D
:103970002A7CA3690AB143F400236A7C0AB143F4A8
:1039800080230020A361BDE8F0870F4BF621074A92
:1039900030E743F40063B3E70029B1D043F01003EC
:1039A000AEE740F22150EEE7F2520060BB530060F8
:1039B000A9520060015300601B530060DA5300609D
:1039C00000C01FE000C01FC06253006008B5044A79
:1039D000044B51681B6804489847BFF34F8F08BDDC
:1039E000A8000020A40000200040184008B5044AA8
:1039F000044B91681B6804489847BFF34F8F08BD7C
:103A0000A8000020A40000200080184008B5044A47
:103A1000044BD1681B6804489847BFF34F8F08BD1B
:103A2000A8000020A400002000C0184008B5044AE7
:103A3000044B11691B6804489847BFF34F8F08BDBA
:103A4000A8000020A40000200000194008B5044A86
:103A5000044B51691B6804489847BFF34F8F08BD5A
:103A6000A8000020A40000200040194008B5044A26
:103A7000044B91691B6804489847BFF34F8F08BDFA
:103A8000A8000020A40000200080194008B5044AC6
:103A9000044BD1691B6804489847BFF34F8F08BD9A
:103AA000A8000020A400002000C0194008B5044A66
:103AB000044B116A1B6804489847BFF34F8F08BD39
:103AC000A8000020A400002000001A402DE9F047C3
:103AD00086468C460846089E154674461946002BB5
:103AE00040F0C2808542B2FA82F245D94AB1C2F1B1
:103AF000200300FA02FC2EFA03F3954043EA0C0C73
:103B000094404FEA154EA8B2BCFBFEF8230C0EFB06
:103B100018CC08FB00F943EA0C43994528D9EB1867
:103B200008F1FF3704D2994502D9A8F102072B44C6
:103B3000A3EB0903A4B2B3FBFEFC0EFB1C330CFB8E
:103B400000F044EA0344A04214D92C190CF1FF33CD
:103B500004D2A04202D9ACF102032C44241A43EA55
:103B600007401EB1D440002334607360BDE8F08785
:103B70004746DDE76346F1E792BB431B01214FEA6D
:103B8000154EAFB2B3FBFEFC200C0EFB1C330CFB3E
:103B900007F840EA0343984562D9EB180CF1FF306F
:103BA00004D2984502D9ACF102002B44A3EB0803E0
:103BB000A4B2B3FBFEFC0EFB1C330CFB07F744EA7C
:103BC0000344A7424ED92C190CF1FF3304D2A7426B
:103BD00002D9ACF102032C44E41B43EA0040C0E7E5
:103BE000C2F1200320FA03F1954090402EFA03F32E
:103BF00003434FEA154EAFB2B1FBFEFC0EFB1C10A7
:103C0000190C0CFB07F841EA0041884504FA02F45C
:103C100022D969180CF1FF3004D2884502D9ACF1E1
:103C200002002944A1EB08019BB2B1FBFEFC0EFB94
:103C30001C110CFB07F743EA01439F420ED9EB1816
:103C40000CF1FF3104D29F4202D9ACF102012B44A6
:103C5000DB1B41EA004192E76046E3E76146F7E794
:103C60006046A3E76346B7E7834206D916B9002149
:103C700008467BE7C6E900E0F9E7B3FA83F78FB9B6
:103C8000834201D3724508D8BEEB020460EB030304
:103C900001209C461EB9002168E73846FAE7C6E9CC
:103CA000004CF8E7C7F1200CBB4022FA0CF41C438F
:103CB0002EFA0CF120FA0CF3B84001434FEA1449F4
:103CC0000EFA07F5B3FBF9F81FFA84FE09FB18306A
:103CD0000B0C08FB0EFA43EA00439A4502FA07F27E
:103CE00040D9E31808F1FF3004D29A4502D9A8F16F
:103CF00002002344A3EB0A0389B2B3FBF9F809FBE2
:103D0000183308FB0EFE41EA03418E452CD9611899
:103D100008F1FF3304D28E4502D9A8F102032144F1
:103D200043EA0040A0FB0298A1EB0E014145CE46BC
:103D3000434602D306D14D4504D2B9EB020E68EBDF
:103D400004030138002EA6D0B5EB0E0261EB03018F
:103D500001FA0CFC22FA07F34CEA0303F940C6E926
:103D6000003198E74046C5E74346D9E71FB51446FA
:103D70001A46094B1B680546D8684CB1074B0091A1
:103D8000CDE9013406492B4600F03CF800F088FBF1
:103D9000044B1C46F3E700BF0400002010540060F1
:103DA0001D5400604B540060002301461A4618461B
:103DB00000F07EBB08B5074B044613B1002100F0AC
:103DC000D9FB054B1868836A03B19847204601F078
:103DD00029F900BF754500604C54006038B5074DA7
:103DE000074C641BA4101CB9BDE8384001F082BB2D
:103DF000013C55F824309847F5E700BF0C550060AA
:103E0000105500600EB403B5014603AB054853F8E6
:103E1000042B0068019300F045F902B05DF804EB53
:103E200003B070470400002070B50D4D0D4C641BAD
:103E3000A4100026A64209D10B4D0C4C01F054FBF6
:103E4000641BA4100026A64205D170BD55F8043BA2
:103E500098470136EEE755F8043B98470136F2E7FC
:103E60000855006008550060085500600C5500605A
:103E7000024B0146186800F077B800BF040000202C
:103E800002440346934200D1704703F8011BF9E74F
:103E900037B5002944D051F8043C0190002BA1F122
:103EA0000404B8BFE41800F0E3FD1E4A019813684B
:103EB00033B96360146003B0BDE8304000F0DEBD8C
:103EC000A34208D9256861198B4201BF19685B6854
:103ED00049192160EDE71A465B680BB1A342FAD994
:103EE00011685518A5420BD1246821445418A342E7
:103EF0001160E0D11C685B6853600C441460DAE721
:103F000002D90C230360D6E7256861198B4204BFF0
:103F100019685B68636004BF491921605460CAE78F
:103F200003B030BDCC00002070B50E4E0C46316899
:103F3000054611B900F0E4F930602146284600F04A
:103F4000DFF9431C0AD0C41C24F00304A04207D0AC
:103F5000211A284600F0D4F9013001D14FF0FF3486
:103F6000204670BDD00000202DE9F041CD1C25F089
:103F7000030508350C2D38BF0C25002D074601DB45
:103F8000A94205D90C233B6000263046BDE8F081EC
:103F90002E4E00F06DFD33681C4634BB2946384672
:103FA000FFF7C2FF431C04464DD134682646002E5D
:103FB00040D123683146384604EB030800F0A0F9ED
:103FC00080453AD123680335ED1A25F003050835FD
:103FD0000C2D38BF0C2529463846FFF7A5FF0130C8
:103FE0002BD023682B4423600EE02268521B1ED482
:103FF0000B2A16D96119A342256018BF596063685E
:1040000008BF316062514B60384604F10B0600F086
:1040100035FD26F00706231DF21AB6D09B1BA350D0
:10402000B3E76268A3420CBF32605A60ECE72346F4
:104030006468B2E734467668B9E70C233B603846DB
:1040400000F01CFDA1E72560DEE700BFCC000020EA
:104050009368013B002B10B4936008DA9469A34283
:1040600001DB0A2903D15DF8044B00F059B913684C
:10407000581C1060197008465DF8044B7047F8B57D
:1040800006460F461446D518AC4201D1002007E081
:1040900014F8011B3A463046FFF7DAFF431CF3D110
:1040A000F8BD00002DE9F04F0D469DB0144698462E
:1040B000064618B183690BB900F0D2FB884B9D42CC
:1040C0001BD175686B6ED90705D4AB899A0502D4EC
:1040D000A86D00F063FCAB891B0701D52B69EBB918
:1040E0002946304600F06EF9C0B16B6EDC070ED584
:1040F0004FF0FF301DB0BDE8F08F7A4B9D4201D1EB
:10410000B568DFE7784B9D4208BFF568DAE7AB8911
:104110009805EDD4A86D00F043FCE9E7002309936E
:1041200020238DF82930CDF80C803023DFF8BC81B6
:104130008DF82A304FF0010923469A4613F8012BD7
:104140000AB1252AF9D1BAEB040B0BD05B46224603
:1041500029463046FFF793FF013000F0A980099A05
:104160005A4409929AF80030002B00F0A1800023F5
:104170004FF0FF32CDE905230AF1010A04930793BA
:104180008DF853301A935446052214F8011B5748F2
:10419000FEF796FA049AD8B9D10644BF20238DF8C9
:1041A0005330130744BF2B238DF853309AF8003057
:1041B0002A2B15D0079A544600204FF00A0C2146AE
:1041C00011F8013B303B092B4DD9B0B1079214E0F7
:1041D000A0EB080309FA03F313430493A246D2E7C2
:1041E000039B191D1B680391002BBBBF5B4242F070
:1041F000020207930793B8BF049223782E2B0CD1A9
:1042000063782A2B34D1039B1A1D1B680392002B61
:10421000B8BF4FF0FF3302340593DFF8E0A02178F8
:1042200003225046FEF74CFA38B1049BA0EB0A007B
:104230004022824013430134049314F8011B2C489C
:104240008DF828100622FEF73BFA00283FD0294BB4
:104250001BBB039B073323F0070308330393099B1E
:104260003B44099368E70CFB02320C460120A6E7A9
:1042700000230134059319464FF00A0C204610F82C
:10428000012B303A092A03D9002BC6D00591C4E787
:104290000CFB012104460123F0E703AB00932A46FF
:1042A000154B04A93046AFF300800746781CD6D1E1
:1042B0006B6ED90705D4AB899A0502D4A86D00F0BE
:1042C0006FFBAB895B063FF513AF099812E703ABB1
:1042D00000932A46084B04A9304600F043FCE4E76B
:1042E00084540060A4540060645400605054006022
:1042F0005A540060000000007F4000605654006087
:1043000038B5064D0023044608462B6000F074FEC5
:10431000431C02D12B6803B1236038BD6801002023
:10432000F8B50E461446054618B183690BB900F07E
:1043300097FA214B9C422BD16C68A369A360A38997
:104340001A072FD523696BB323692068C01A6369E4
:10435000F6B28342374604DC2146284600F0ECF9E9
:1043600030BBA368013BA36023685A1C22601E7007
:1043700063690130834204D0A389DB0706D50A2E86
:1043800004D12146284600F0D7F988B93846F8BD4F
:104390000A4B9C4201D1AC68CFE7094B9C4208BF55
:1043A000EC68CAE72146284600F00CF80028CBD07C
:1043B0004FF0FF37EAE700BF84540060A454006068
:1043C00064540060324B70B51D6806460C4625B13A
:1043D000AB6913B9284600F043FA2E4B9C420FD12B
:1043E0006C68A389B4F90C2019072CD4DD0611D40C
:1043F0000923336042F04003A3814FF0FF303EE0D9
:10440000254B9C4201D1AC68EBE7244B9C4208BF92
:10441000EC68E6E7580712D5616B41B104F144033B
:10442000994202D03046FFF733FD00236363A3892E
:1044300023F02403A3810023636023692360A389FD
:1044400043F00803A38123694BB9A38903F42073C4
:10445000B3F5007F03D02146304600F0C9FAA089A9
:10446000B4F90C2010F001030AD00023A3606369A3
:104470005B42A361236943B910F08000BAD170BDDB
:10448000810758BF6369A360F4E70020F7E700BF26
:104490000400002084540060A45400606454006050
:1044A00008B5062000F0A8FC012000F0BBFD0000CC
:1044B0002DE9F843DFF8B8800646D8F800001F461B
:1044C0000D46914600F06AFA254B1C6834B9254C1C
:1044D0001C60254B13B11B68C4F8883063681F2B20
:1044E00007DDD8F8000000F05BFA4FF0FF30BDE8C0
:1044F000F8834EB3D4F8880088B91C4B23B9D8F898
:10450000000000F04CFAF0E74FF48470FFF7B0FCC5
:104510000028F4D00023C0E94033C4F88800636861
:1045200040F8239001229A4000EB8301D0F800313B
:104530001343C0F80031022EC1F8807002BFD0F8DA
:1045400004311343C0F804316368D8F800005A1CE2
:104550000233626044F8235000F022FA0020C6E7DC
:1045600060010020D400002000000000713E0060C7
:10457000680000202DE9F74FDFF8A89000918046F1
:10458000D9F80000DFF8A0A000F008FADAF800403F
:1045900034B9D9F8000003B0BDE8F04F00F000BA1C
:1045A0006568D4F888706E1E013504EB850507F147
:1045B000800B002EEDDB009B43B117B9013E043D9B
:1045C000F7E75BF82620009B9A42F7D161682A68DA
:1045D0000139B14216BF002366602B60002AEDD07E
:1045E000636801933FB1D7F80011012303FA06FC79
:1045F0001CEA010F09D190476168019BDAF800209D
:104600009942C3D19442D9D0C0E7D7F8040157F8F2
:1046100026101CEA000F02D140469047ECE70846FE
:104620009047E9E768000020600100208A892DE9B1
:10463000F041054610070C4658D44B68002B05DCAA
:104640000B6C002B02DC0020BDE8F081E66A002E36
:10465000F9D0002312F480522F68216A2B6032D0E7
:10466000606DA3895A0705D56368C01A636B0BB1E7
:10467000236CC01A00230246E66A216A2846B04726
:10468000431CA38906D129681D292BD8294A0A4130
:10469000D60727D400226260D9042269226004D59B
:1046A000421C01D12B6803B96065616B2F60002942
:1046B000C9D004F14403994202D02846FFF7E8FB31
:1046C00000206063C0E701232846B047411CC8D1E1
:1046D0002B68002BC5D01D2B01D0162B01D12F60CC
:1046E000B1E7A38943F04003A381ADE70F69002F31
:1046F000A9D093070E6808BF4B690F6018BF00234D
:10470000A6EB07088B60B8F1000F9CDD216AA66A52
:1047100043463A462846B047002806DCA38943F0C2
:104720004003A3814FF0FF308EE70744A8EB000859
:10473000E9E700BFFEFFBFDF38B50B6905460C4651
:1047400013B90025284638BD18B183690BB900F0AC
:1047500087F8144B9C421BD16C68B4F90C30002BC9
:10476000EFD0626ED00704D4990502D4A06D00F09A
:1047700015F928462146FFF759FF636EDA0705460B
:10478000E0D4A3899B05DDD4A06D00F009F9D9E739
:10479000054B9C4201D1AC68DFE7044B9C4208BF4B
:1047A000EC68DAE784540060A4540060645400604C
:1047B000002310B50446C0E90033C0E90433836028
:1047C00081814366C2818361194608225C30FFF70C
:1047D00057FB054B6362054BA362054BE362054B38
:1047E0002462236310BD00BF314E0060534E006051
:1047F0008B4E0060AF4E0060014900F0AFB800BFC3
:104800003947006070B568234D1E5D430E4605F1C3
:104810007401FFF7A9FB044640B10021C0E900166E
:104820000C30A06005F16802FFF72AFB204670BD3E
:10483000014800F0B3B800BF66010020014800F055
:10484000AFB800BF66010020014800F0A7B800BF64
:1048500067010020014800F0A3B800BF67010020F5
:1048600010B50446FFF7F0FFA3691BB1BDE8104087
:10487000FFF7F0BFC4E912332365134B134A1B68DB
:10488000A262A34204BF0123A361204600F020F8E6
:104890006060204600F01CF8A060204600F018F888
:1048A0000022E06004216068FFF782FFA068012217
:1048B0000921FFF77DFFE06802221221FFF778FF50
:1048C0000123A361D2E700BF4C540060F9470060A8
:1048D000F8B50746FFF7ACFF1E4B1E68B36913B966
:1048E0003046FFF7BDFF4836D6E90134013B03D51A
:1048F00033680BB33668F7E7B4F90C50D5B9164BEB
:10490000E36004F15800656600F047F8FFF796FF92
:10491000C4E90155C4E904552560A561082229466A
:1049200004F15C00FFF7ACFAC4E90D55C4E9125577
:104930002046F8BD6834D9E704213846FFF762FF06
:10494000044630600028D5D1FFF778FF0C233B6088
:10495000EEE700BF4C5400600100FFFF2DE9F84373
:104960000646884600F148040027D4E90195B9F1CC
:10497000010905D52468002CF7D13846BDE8F88335
:10498000AB89012B07D9B5F90E30013303D0294685
:104990003046C04707436835E9E7704770477047BE
:1049A000704770B50C46B1F90E10002996B0154647
:1049B0001E460DDAA38913F0800F4FF000010CBFE3
:1049C0004FF480634023002031602B6016B070BD2F
:1049D0006A4600F093FA0028ECDB019901F470417B
:1049E000A1F50053594259414FF48063EBE70000B1
:1049F0008B8973B59D0706460C4607D504F147031E
:104A0000236023610123636102B070BD01AB6A467C
:104A1000FFF7C7FF009905463046FFF7A5FA48B9EA
:104A2000B4F90C309A05EFD423F0030343F00203EA
:104A3000A381E3E70D4BB362A389206043F08003B9
:104A4000A381009B6361019B20615BB1B4F90E10EF
:104A5000304600F065FA28B1A38923F0030343F040
:104A60000103A381A3891D43A581CDE7F947006018
:104A70000148FFF793BF00BF650100200148FFF721
:104A80008FBF00BF650100202DE9F047164699460B
:104A90008A680B69DDF820809342B8BF1346336003
:104AA00091F8432007460C460AB10133336023686E
:104AB000990642BF336802333360256815F0060556
:104AC00006D104F1190AE36832689B1AAB4226DC6E
:104AD00094F84320131E226818BF012392062BD49A
:104AE00004F1430249463846C04701301ED02368CE
:104AF000226903F00603042B02BFE5683368ED1A50
:104B0000A3680CBF25EAE57500259342C4BF9B1A34
:104B1000ED1800261A34B5421AD1002008E001230E
:104B2000524649463846C047013003D14FF0FF3066
:104B3000BDE8F0870135C6E7E1185A1C302081F83E
:104B40004300224494F8451082F843100233C7E72B
:104B50000123224649463846C0470130E6D0013697
:104B6000D9E700002DE9FF470F7E0C9D782F914675
:104B700080460C469A4601F1430207D8622F0AD8B4
:104B8000002F00F0D480582F00F0C08004F14205BF
:104B900084F842703AE0A7F16303152BF6D801A11F
:104BA00051F823F0FD4B0060114C00608D4B00600C
:104BB0008D4B00608D4B00608D4B0060114C006090
:104BC0008D4B00608D4B00608D4B00608D4B006005
:104BD000154D00603D4C0060CF4C00608D4B006077
:104BE0008D4B0060374D00608D4B00603D4C006088
:104BF0008D4B00608D4B0060D74C00602B681A1DF8
:104C00001B682A6004F1420584F8423001239FE0CA
:104C100020682B68070603F10401296001D51E688E
:104C200003E04606FBD5B3F90060002E03DA2D231E
:104C3000764284F843305A480A2312E02B682068F1
:104C4000191D2960050601D51E6802E04106FBD545
:104C50001E8853486F2F0CBF08230A23002184F8B5
:104C600043106568A560002DA2BF216821F00401F2
:104C700021600EB9002D4BD01546B6FBF3F103FBB6
:104C80001167C75D05F8017D3746BB420E46F4D972
:104C9000082B0BD12368DE0708D523696168994288
:104CA000DEBF302305F8013C05F1FF35521B2261C0
:104CB000CDF800A04B4603AA21464046FFF7E4FE8C
:104CC00001304AD14FF0FF3004B0BDE8F0872368CF
:104CD00043F0200323603348782784F84570236825
:104CE00029681F0651F8046B02D45F0648BFB6B2AC
:104CF000DF0748BF43F02003296048BF23601EB987
:104D0000236823F0200323601023A7E72448E4E767
:104D10001546BDE72B6826686169181D28603506B1
:104D20001B6801D5196002E07006FBD519800023CD
:104D300023611546BCE72B681A1D2A601D6862684E
:104D400000212846FDF7BCFC08B1401B6060636889
:104D50002361002384F84330AAE723692A464946A1
:104D60004046D0470130ADD023689B0713D4E0689C
:104D7000039B9842B8BF1846A6E70123324649462E
:104D80004046D04701309DD00135E36803995B1A56
:104D9000AB42F2DCEBE7002504F11906F5E700BFB2
:104DA000C4540060D55400601F2938B504460D4630
:104DB00004D9162303604FF0FF3038BD426C12B1A6
:104DC00052F821304BB9204600F030F82A4601460F
:104DD0002046BDE8384000F017B8012B0AD0591C16
:104DE00003D1162303600120E7E7002442F82540A1
:104DF000284698470020E0E7024B01461868FFF775
:104E0000D3BF00BF0400002038B5074D002304467F
:104E1000084611462B6000F0D7F8431C02D12B68DE
:104E200003B1236038BD00BF6801002000F0BCB8AA
:104E300010B50C46B1F90E1000F094F80028ABBF85
:104E4000636DA3891B1823F48053ACBF6365A381F2
:104E500010BD2DE9F0411F468B89DB0505460C4648
:104E6000164605D5B1F90E100223002200F068F8AD
:104E7000A389B4F90E1023F48053A38132463B4634
:104E80002846BDE8F04100F017B810B50C46B1F95E
:104E90000E1000F055F8431CA38915BF606523F47C
:104EA000805343F48053A38118BFA38110BDB1F98F
:104EB0000E1000F013B8000038B5074D0446084640
:104EC000114600222A601A4600F0A4F8431C02D1C1
:104ED0002B6803B1236038BD6801002038B5064D4A
:104EE0000023044608462B6000F04EF8431C02D114
:104EF0002B6803B1236038BD6801002038B5074D29
:104F000000230446084611462B6000F045F8431C78
:104F100002D12B6803B1236038BD00BF68010020B7
:104F200038B5064D0023044608462B6000F044F8CF
:104F3000431C02D12B6803B1236038BD68010020F7
:104F400038B5074D04460846114600222A601A4625
:104F500000F042F8431C02D12B6803B1236038BD36
:104F60006801002038B5074D044608461146002266
:104F70002A601A4600F038F8431C02D12B6803B1AE
:104F8000236038BD68010020024B58221A604FF0A0
:104F9000FF30704768010020024B58221A604FF022
:104FA000FF30704768010020024B58221A604FF012
:104FB000FF30704768010020024B58221A60002021
:104FC000704700BF68010020024B58221A604FF062
:104FD000FF30704768010020024B58221A604FF0E2
:104FE000FF30704768010020024B58221A604FF0D2
:104FF000FF30704768010020044A05491368002B00
:1050000008BF0B4618441060184670476C0100201A
:1050100070010020024B58221A604FF0FF30704799
:1050200068010020FEE700BF01010062757379533B
:1050300068696674203C3D2043434D5F4E4F5F429C
:105040005553595F5741495400736F757263652F0B
:105050004D494D5852543130363244564A36412F1C
:1050600066736C5F636C6F636B2E6800434C4F43D9
:105070004B5F5365744D757800434C4F434B5F5302
:10508000657444697600010101000100010000001F
:10509000000000000100000000000000000000000F
:1050A00064000000000000008025000000000000F7
:1050B0000001000000000000010100002162797081
:1050C0006173735874616C4F736300736F757263AF
:1050D000652F4D494D5852543130363244564A3678
:1050E000412F66736C5F636C6F636B2E6300434C80
:1050F0004F434B5F496E697445787465726E616C9D
:10510000436C6B0062697452617465203C3D204DB4
:1051100041585F43414E5F424954524154450073E8
:105120006F757263652F4D494D5852543130363288
:1051300044564A36412F66736C5F666C65786361CE
:105140006E2E63004E554C4C20213D20735F666CE3
:10515000657863616E48616E646C655B315D004EBD
:10516000554C4C20213D20735F666C657863616E01
:1051700048616E646C655B325D004E554C4C20217D
:105180003D20735F666C657863616E48616E646C28
:10519000655B335D0043414E335F447269766572EF
:1051A00049525148616E646C65720043414E325FF2
:1051B00044726976657249525148616E646C6572D9
:1051C0000043414E315F44726976657249525148DD
:1051D000616E646C65720070696E203C20333255DC
:1051E00000736F757263652F4D494D5852543130BD
:1051F000363244564A36412F66736C5F6770696F6A
:105200002E6300696E7374616E6365203C204152A9
:105210005241595F53495A4528735F6770696F421D
:10522000617365732900696E646578203C3D2037A1
:10523000554C004750494F5F50696E57726974650D
:1052400000434C4F434B5F436F6E74726F6C47610A
:105250007465004750494F5F476574496E737461C8
:105260006E636500FFFF1A011E001A020C031E0187
:105270000000000000801B4000C01B4000001C40DC
:1052800000401C4000000C40000000420040004272
:105290000080004200C0004200801C404E554C4C33
:1052A00020213D206461746100736F757263652F06
:1052B0004D494D5852543130363244564A36412FBA
:1052C00066736C5F6C70756172742E6300696E73C7
:1052D00074616E6365203C2041525241595F5349CD
:1052E0005A4528735F6C707561727442617365739F
:1052F00029004E554C4C20213D20636F6E66696736
:10530000003055203C20636F6E6669672D3E6261F8
:105310007564526174655F427073002875696E74BC
:10532000385F742946534C5F464541545552455F9A
:105330004C50554152545F4649464F5F53495A4578
:105340006E286261736529203E20636F6E6669670F
:105350002D3E74784669666F57617465726D61722F
:105360006B002875696E74385F742946534C5F462C
:105370004541545552455F4C50554152545F464942
:10538000464F5F53495A456E286261736529203E36
:1053900020636F6E6669672D3E72784669666F5747
:1053A000617465726D61726B00434C4F434B5F4398
:1053B0006F6E74726F6C47617465004C505541524A
:1053C000545F496E6974004C50554152545F4765B3
:1053D00074496E7374616E636500FFFF18051C00ED
:1053E0000C001801020306031A050E060000000057
:1053F000004018400080184000C0184000001940CC
:10540000004019400080194000C0194000001A40B7
:105410002C2066756E6374696F6E3A200061737339
:10542000657274696F6E2022257322206661696C33
:1054300065643A2066696C6520222573222C206CF5
:10544000696E65202564257325730A000800002015
:10545000232D302B2000686C4C006566674546475D
:10546000000000000000000000000000000000003C
:10547000000000000000000000000000000000002C
:10548000000000000000000000000000000000001C
:10549000000000000000000000000000000000000C
:1054A00000000000000000000000000000000000FC
:1054B00000000000000000000000000000000000EC
:1054C000000000003031323334353637383941424C
:1054D000434445460030313233343536373839614C
:1054E0006263646566000000F8B500BFF8BC08BCE4
:1054F0009E467047F8B500BFF8BC08BC9E46704792
:0855000000CFFF7F0100000055
:045508008527006093
:04550C0061270060B3
:1055100000A4781F080000200000000084540060F0
:10552000A45400606454006000000000000000000B
:10553000000000000000000000000000000000006B
:10554000000000000000000000000000000000005B
:10555000000000000000000000000000000000004B
:10556000000000000000000000000000000000003B
:0C557000000000000000000064010020AA
:040000056000247102
:00000001FF
